:040000007CEF02F09F
:1000080000C016F001C015F0CAD916C000F015C01E
:0400180001F01100E2
:0C001C00000000000000000000001200C6
:10002800240E0C6EB50E0D6E0D2EFED70C2EFCD7C1
:06003800000000001200B0
:0A003E00530E0D6E0D2EFED71200BA
:1000480031BE02D0839E01D0838E31BC02D0839C06
:1000580001D0838C31BA02D0839A01D0838A31B817
:1000680002D0839801D0838818B402D0838401D049
:1000780083948386CFDF839631B602D0839E01D0E6
:10008800838E31B402D0839C01D0838C31B202D0EC
:10009800839A01D0838A31B002D0839801D08388B3
:1000A80018B402D0838401D083948386B3DF839607
:0C00B80018A402D0B5DF01D0BEDF12009A
:1000C400086A096A100E0C6E0134083609360450A9
:1000D400085E0550D8A0053C095ED8B007D004508E
:1000E40008260550D8B0053C0926D89000360136BC
:0600F4000C2EEAD71200F9
:0C00FA0018942AC031F0A3DF1884120013
:06010600818081901200CF
:10010C00818081828192016A0150171804E08180FC
:08011C008190012AF9D71200BD
:100124002E6A050E2E5C0AE22E502C24E16E000E7F
:100134002D20E26E200EE66E2E2AF3D72E502C24AC
:10014400E16E000E2D20E26EE66A2E062E502C245F
:100154002F6E000E2D20306E0A0E046E000E056EFA
:100164002AC000F02BC001F0ABDF08C000F009C0CA
:1001740001F0300E00262FC0E1FF30C0E2FF00C0C6
:10018400E6FF0A0E046E000E056E2AC000F02BC0B6
:1001940001F096DF00C02AF001C02BF0000E011818
:1001A40002E1000E001801E102D02E06CFD71200A2
:1001B400266A276A20C028F021C029F0800E211861
:1001C400006E800E005C02E1000E205C0BE2010E6A
:1001D400266E000E276E20500008286E21C029F0DC
:1001E400000E295628C02AF029C02BF022C02CF07A
:1001F40023C02DF095DF060E246E000E256E000E32
:10020400006E2550005C02E12450000819E22450DD
:100214002224E16E25502320E26E010E245C006E40
:10022400000E2558016E00502224E96E015023204F
:10023400EA6EEECFE6FF010E245E000E255ADFD7EC
:1002440022C0E1FF23C0E2FF200EE66E26502710F5
:100254001AE0246A256A24502224E96E25502320BA
:10026400EA6EEE50200A03E1244A252AF4D7010E4F
:10027400245E000E255A24502224E16E25502320AA
:08028400E26E2D0EE66E120081
:10028C0081AC02D018A2188281AE02D018A01880BE
:10029C0081BC0BD018A209D018861892172A0B0E05
:1002AC00175C02E3010E176E28DF81BE0BD018A07D
:1002BC0009D01886189017061750000802E30A0E8A
:0602CC00176E1EDF120098
:1002D2000FD0800E206E19D0C00E206E16D0940E54
:1002E200206E13D0D40E206E10D0800E206E0DD052
:1002F2002050010AEEE02050020AEEE02050030AEC
:10030200EEE02050040AEEE0F0D72104006E205007
:10031200002600C020F000C031F095DE1894246A57
:1003220024502224E96E000E2320EA6EEE520BE0E6
:1003320024502224E96E000E2320EA6EEECF2AF02A
:0A034200DBDE242AEDD71884120038
:10034C000FD0800E206E19D0C00E206E16D0940ED9
:10035C00206E13D0D40E206E10D0800E206E0DD0D7
:10036C002050010AEEE02050020AEEE02050030A71
:10037C00EEE02050040AEEE0F0D72104006E20508D
:10038C00002600C020F0188400C031F057DE18940D
:0A039C0022C031F053DE1884120075
:1003A600F2A407D0F294B10ED76EE00ED66E83702B
:0403B6006ADF1200E8
:1003BA00959695949598959A959C959E83968394EF
:1003CA00839E839C839A83982ADE29DE28DE838A89
:1003DA00838883861EDE839622DE83861ADE8396D0
:1003EA001EDE838616DE83961ADE8398838611DEE6
:1003FA00839615DE83860DDE8396839A838E8386A3
:10040A0008DE83960CDE839E8388838602DE8396CB
:10041A0083988386FEDD839602DE8386FADD8396E1
:10042A0083888386F6DD8396FADD83988386F1DDF9
:10043A008396838E838C838A83888386EADD839678
:06044A00EEDD1884120033
:100450000900F5CFE6FF0006FBE10106F9E1120015
:10046000010E206E010E216E4A0E226E6FDF430ECA
:100470002A6E43DE200E2A6E40DE4D0E2A6E3DDED1
:100480004F0E2A6E3ADE440E2A6E37DE550E2A6E65
:1004900034DE4C0E2A6E31DE4F0E2A6E2EDE530EE7
:1004A0002A6E2BDE020E206E010E216E500E226E81
:1004B0004DDF4F0E2A6E21DE530E2A6E1EDE3A0EDF
:1004C0002A6E1BDE17C020F0000E216E190E226E60
:1004D000000E236E6FDE020E206E060E216E190EC8
:0A04E000226E000E236EF5DE1200FE
:0E04EA0018A604D0010E316EAADD189612007D
:1004F80099EC02F0F28EF28CD08E956AF80E936E1B
:10050800C26A0F0EC16E1886880ED56EB10ED76EF0
:10051800E00ED66EF294F184F28A4BDF0C0E316E47
:0A0528008FDDDFDF99DFFDD7FFD77D
:1005320010EE17F0010E006E010E016E060EF66E41
:0E054200000EF76E000EF86E28EC02F01200AC
:0100060001F8
:020000040030CA
:0E000000000C1E1EFF0381FF0FC00FE00F401B
:00000001FF
