:0400000076EF02F0A5
:1000080000C016F001C015F0F2A407D0F294B10EAA
:10001800D76EE00ED66E8370A0D916C000F015C05A
:0400280001F01100D2
:0C002C00000000000000000000001200B6
:10003800240E0C6EB50E0D6E0D2EFED70C2EFCD7B1
:06004800000000001200A0
:0A004E00530E0D6E0D2EFED71200AA
:10005800086A096A100E0C6E013408360936045015
:10006800085E0550D8A0053C095ED8B007D00450FA
:1000780008260550D8B0053C0926D8900036013628
:060088000C2EEAD7120065
:10008E0034BE02D0839E01D0838E34BC02D0839CBA
:10009E0001D0838C34BA02D0839A01D0838A34B8CB
:1000AE0002D0839801D0838819B402D0838401D002
:1000BE0083948386B4DF839634B602D0839E01D0B8
:1000CE00838E34B402D0839C01D0838C34B202D0A0
:1000DE00839A01D0838A34B002D0839801D083886A
:1000EE0019B402D0838401D08394838698DF8396DB
:0C00FE0019A402D09ADF01D0A3DF120089
:10010A00316A050E315C0AE231502F24E16E000E8D
:10011A003020E26E200EE66E312AF3D731502F24BA
:10012A00E16E000E3020E26EE66A310631502F246D
:10013A00326E000E3020336E0A0E046E000E056E0B
:10014A002DC000F02EC001F082DF08C000F009C007
:10015A0001F0300E002632C0E1FF33C0E2FF00C0DA
:10016A00E6FF0A0E046E000E056E2DC000F02EC0CA
:10017A0001F06DDF00C02DF001C02EF0000E011855
:10018A0002E1000E001801E102D03106CFD71200B9
:0C019A0019942DC034F076DF1984120097
:1001A6000FD0800E236E19D0C00E236E16D0940E7B
:1001B600236E13D0D40E236E10D0800E236E0DD076
:1001C6002350010AEEE02350020AEEE02350030A10
:1001D600EEE02350040AEEE0F0D72404006E23502C
:1001E600002600C023F000C034F04EDF1994276AC1
:1001F60027502524E96E000E2620EA6EEE520BE00B
:1002060027502524E96E000E2620EA6EEECF2DF04B
:0A021600C1DF272AEDD7198412007A
:100220000FD0800E236E19D0C00E236E16D0940E00
:10023000236E13D0D40E236E10D0800E236E0DD0FB
:100240002350010AEEE02350020AEEE02350030A95
:10025000EEE02350040AEEE0F0D72404006E2350B1
:10026000002600C023F0198400C034F010DF199478
:0A02700025C034F00CDF19841200E1
:10027A00296A2A6A23C02BF024C02CF0800E241885
:10028A00006E800E005C02E1000E235C0BE2010EA0
:10029A00296E000E2A6E235000082B6E24C02CF003
:1002AA00000E2C562BC02DF02CC02EF025C02FF09E
:1002BA0026C030F025DF060E276E000E286E000ECF
:1002CA00006E2850005C02E12750000819E227500E
:1002DA002524E16E28502620E26E010E275C006E6E
:1002EA00000E2858016E00502524E96E0150262080
:1002FA00EA6EEECFE6FF010E275E000E285ADFD720
:10030A0025C0E1FF26C0E2FF200EE66E29502A1022
:10031A001AE0276A286A27502524E96E28502620E1
:10032A00EA6EEE50200A03E1274A282AF4D7010E82
:10033A00275E000E285A27502524E16E28502620D1
:08034A00E26E2D0EE66E1200BA
:100352000900F5CFE6FF0006FBE10106F9E1120014
:1003620081AC02D019A6198681AE02D019A21982D7
:1003720081BC0BD019A609D0198019968180172A41
:100382000B0E175C02E3010E176E81BE15D019A287
:1003920013D019801992818017061750000802E3C2
:1003A2000A0E176E81828192016A0150171804E0C9
:0C03B20081808190012AF9D7819012000F
:1003BE00959695949598959A959C959E83968394EB
:1003CE00839E839C839A839830DE2FDE2EDE838A73
:1003DE008388838624DE839628DE838620DE8396BA
:1003EE0024DE83861CDE839620DE8398838617DECA
:1003FE0083961BDE838613DE8396839A838E838693
:10040E000EDE839612DE839E8388838608DE8396B5
:10041E008398838604DE839608DE838600DE8396C9
:10042E0083888386FCDD839600DE83988386F7DDE2
:10043E008396838E838C838A83888386F0DD83966E
:06044E00F4DD1984120028
:10045400010E236E010E246E4A0E256EDFDE430E5E
:100464002D6E99DE200E2D6E96DE4D0E2D6E93DED2
:100474004F0E2D6E90DE440E2D6E8DDE550E2D6EBC
:100484008ADE4C0E2D6E87DE4F0E2D6E84DE530EEB
:100494002D6E81DE020E236E010E246E500E256E2B
:1004A400BDDE4F0E2D6E77DE530E2D6E74DE3A0ECA
:1004B4002D6E71DE17C023F0000E246E1C0E256E07
:1004C400000E266ED8DE020E236E060E246E1C0E5F
:0A04D400256E000E266E65DE120094
:0E04DE0019A004D0010E346ED3DD1990120067
:1004EC00010E176EF28EF28CD08E956AF80E936E0A
:1004FC00C26A0F0EC16E199619921980880ED56EAC
:10050C00B10ED76EE00ED66EF294F184F28A51DF02
:0E051C000C0E346EB6DDDDDF97DFFDD7FFD7A6
:020000040030CA
:0E000000000C1E1EFF0381FF0FC00FE00F401B
:00000001FF
