:0400000078EF02F0A3
:1000080000C016F001C015F0CED916C000F015C01A
:0400180001F01100E2
:0C001C00000000000000000000001200C6
:10002800240E0C6EB50E0D6E0D2EFED70C2EFCD7C1
:06003800000000001200B0
:0A003E00530E0D6E0D2EFED71200BA
:10004800086A096A100E0C6E013408360936045025
:10005800085E0550D8A0053C095ED8B007D004500A
:1000680008260550D8B0053C0926D8900036013638
:060078000C2EEAD7120075
:10007E0031BE02D0839E01D0838E31BC02D0839CD0
:10008E0001D0838C31BA02D0839A01D0838A31B8E1
:10009E0002D0839801D0838818B602D0838401D011
:1000AE0083948386B4DF839631B602D0839E01D0CB
:1000BE00838E31B402D0839C01D0838C31B202D0B6
:1000CE00839A01D0838A31B002D0839801D083887D
:1000DE0018B602D0838401D08394838698DF8396EA
:0C00EE0018A602D09ADF01D0A3DF120098
:1000FA002E6A050E2E5C0AE22E502C24E16E000EAA
:10010A002D20E26E200EE66E2E2AF3D72E502C24D6
:10011A00E16E000E2D20E26EE66A2E062E502C2489
:10012A002F6E000E2D20306E0A0E046E000E056E24
:10013A002AC000F02BC001F082DF08C000F009C01D
:10014A0001F0300E00262FC0E1FF30C0E2FF00C0F0
:10015A00E6FF0A0E046E000E056E2AC000F02BC0E0
:10016A0001F06DDF00C02AF001C02BF0000E01186B
:10017A0002E1000E001801E102D02E06CFD71200CC
:0C018A0018962AC031F076DF18861200AB
:100196000FD0800E206E19D0C00E206E16D0940E91
:1001A600206E13D0D40E206E10D0800E206E0DD08F
:1001B6002050010AEEE02050020AEEE02050030A29
:1001C600EEE02050040AEEE0F0D72104006E205045
:1001D600002600C020F0188600C031F04DDF1896CA
:0A01E60022C031F049DF1886120034
:1001F00081AC02D018A2188281AE02D018A018805B
:1002000081BC0BD018A209D0188418928180172ABB
:100210000B0E175C02E3010E176E81BE15D018A0FD
:1002200013D018841890818017061750000802E335
:100230000A0E176E81828192016A0150171804E03C
:0C02400081808190012AF9D78190120082
:10024C000FD0800E206E19D0C00E206E16D0940EDA
:10025C00206E13D0D40E206E10D0800E206E0DD0D8
:10026C002050010AEEE02050020AEEE02050030A72
:10027C00EEE02050040AEEE0F0D72104006E20508E
:10028C00002600C020F000C031F0F3DE1896246A7E
:10029C0024502224E96E000E2320EA6EEE520BE06D
:1002AC0024502224E96E000E2320EA6EEECF2AF0B1
:0A02BC0066DF242AEDD71886120031
:1002C600266A276A20C028F021C029F0800E21184E
:1002D600006E800E005C02E1000E205C0BE2010E57
:1002E600266E000E276E20500008286E21C029F0C9
:1002F600000E295628C02AF029C02BF022C02CF067
:1003060023C02DF0F7DE060E246E000E256E000EBD
:10031600006E2550005C02E12450000819E22450CA
:100326002224E16E25502320E26E010E245C006E2D
:10033600000E2558016E00502224E96E015023203C
:10034600EA6EEECFE6FF010E245E000E255ADFD7D9
:1003560022C0E1FF23C0E2FF200EE66E26502710E2
:100366001AE0246A256A24502224E96E25502320A7
:10037600EA6EEE50200A03E1244A252AF4D7010E3C
:10038600245E000E255A24502224E16E2550232097
:08039600E26E2D0EE66E12006E
:10039E000900F5CFE6FF0006FBE10106F9E11200C8
:1003AE00F2A407D0F294B10ED76EE00ED66E837023
:0403BE0018DF120032
:0E03C20018A404D0010E316E59DE18941200FA
:1003D000010E206E010E216E4A0E226EDCDE430EEF
:1003E0002A6ED3DE200E2A6ED0DE4D0E2A6ECDDEB2
:1003F0004F0E2A6ECADE440E2A6EC7DE550E2A6ED6
:10040000C4DE4C0E2A6EC1DE4F0E2A6EBEDE530EC7
:100410002A6EBBDE020E206E010E216E500E226E81
:10042000BADE4F0E2A6EB1DE530E2A6EAEDE3A0EE3
:100430002A6EABDE17C020F0000E216E190E226E60
:10044000000E236E40DF020E206E060E216E190E86
:0A045000226E000E236EFADE120089
:10045A00959695949598959A959C959E839683944E
:10046A00839E839C839A8398DADDD9DDD8DD838ADB
:10047A0083888386CEDD8396D2DD8386CADD839622
:10048A00CEDD8386C6DD8396CADD83988386C1DD89
:10049A008396C5DD8386BDDD8396839A838E8386A4
:1004AA00B8DD8396BCDD839E83888386B2DD83961E
:1004BA0083988386AEDD8396B2DD8386AADD839632
:1004CA0083888386A6DD8396AADD83988386A1DD49
:1004DA008396838E838C838A838883869ADD839628
:0604EA009EDD18861200E1
:1004F000010E176EF28EF28CD08E956AF80E936E06
:10050000C26A0F0EC16E1884880ED56EB10ED76EFA
:10051000E00ED66EF294F184F28A9FDF0C0E316EFB
:0A052000AEDD4FDF55DFFDD7FFD73A
:020000040030CA
:0E000000000C1E1EFF0381FF0FC00FE00F401B
:00000001FF
