:10000000E5EF00F000000000D0EF00F0000000007D
:0C0010000000000000000000D9EF00F02C
:0C001C00000000000000000000001200C6
:10002800240E0C6EB50E0D6E0D2EFED70C2EFCD7C1
:06003800000000001200B0
:0A003E00530E0D6E0D2EFED71200BA
:1000480028BE02D0839E01D0838E28BC02D0839C18
:1000580001D0838C28BA02D0839A01D0838A28B829
:1000680002D0839801D0838823B002D0838401D042
:1000780083948386CFDF839628B602D0839E01D0EF
:10008800838E28B402D0839C01D0838C28B202D0FE
:10009800839A01D0838A28B002D0839801D08388BC
:1000A80023B002D0838401D083948386B3DF839600
:0C00B80023A002D0B5DF01D0BEDF120093
:0C00C400239027C028F0BEDF238012002C
:1000D0000900F5CFE6FF0006FBE10106F9E1120099
:1000E000959695949598959A959C959E83968394CC
:1000F000839E839C839A839897DF96DF95DF838A1C
:10010000838883868BDF83968FDF838687DF839662
:100110008BDF838683DF839687DF839883867EDF0A
:10012000839682DF83867ADF8396839A838E8386A3
:1001300075DF839679DF839E838883866FDF83965E
:10014000839883866BDF83966FDF838667DF839672
:100150008388838663DF839667DF839883865EDF89
:100160008396838E838C838A8388838657DF8396E6
:060170005BDF238012009A
:10017600266A26502424E96E000E2520EA6EEE52E9
:100186000BE026502424E96E000E2520EA6EEECF01
:0A01960027F095DF262AEDD71200AE
:1001A000F2A406D0F294B10ED76EE00ED66E837034
:0201B00011003C
:1001B200156ED8CF16F0E0CF17F01750E06E16503C
:0801C200D86E153A1538100043
:1001CA004A0E186E430E196E200E1A6E4D0E1B6ED5
:1001DA004F0E1C6E440E1D6E550E1E6E4C0E1F6E7B
:1001EA004F0E206E530E216E226AF28EF28CD08E42
:1001FA00956AF80E936E880ED56EB10ED76EE00E24
:10020A00D66EF294F184F28A66DF010E286E17DF49
:10021A000C0E286E14DF180E246E000E256EA6DF53
:04022A00FFD7FFD724
:020000040030CA
:0E000000000C1E1EFF0381FF0FC00FE00F401B
:00000001FF
