:10000000F3EF02F000000000E0EF02F0000000005B
:0C0010000000000000000000E2EF02F021
:0A001C00530E0D6E0D2EFED71200DC
:10002600240E0C6EB50E0D6E0D2EFED70C2EFCD7C3
:06003600000000001200B2
:0C003C00000000000000000000001200A6
:1000480029BE02D0839E01D0838E29BC02D0839C16
:1000580001D0838C29BA02D0839A01D0838A29B827
:1000680002D0839801D0838823B002D0838401D042
:1000780083948386DFDF839629B602D0839E01D0DE
:10008800838E29B402D0839C01D0838C29B202D0FC
:10009800839A01D0838A29B002D0839801D08388BB
:1000A80023B002D0838401D083948386C3DF8396F0
:0C00B80023A002D0B4DF01D0ADDF1200A5
:1000C4001BBE0ED01E0EE16E000EE26E1A50E1262B
:1000D400D8B0E22A26C0E6FF1A2A010E266E0ED0F8
:1000E4001A5000080BE21A061E0EE96E000EEA6EA4
:1000F4001A50E926D8B0EA2AEECF26F026C000F03E
:020104001200E7
:1001060081828192016A0150261804E081808190E3
:06011600012AF9D71200D6
:0E011C001BA204D0010E296E91DF1B9212006F
:10012A000FD0800E266E19D0C00E266E16D0940EF1
:10013A00266E13D0D40E266E10D0800E266E0DD0E9
:10014A002650010AEEE02650020AEEE02650030A83
:10015A00EEE02650040AEEE0F0D72704006E26509F
:10016A00002600C026F0238000C029F068DF239013
:0A017A0028C029F064DF2380120082
:0C018400239026C029F05EDF23801200CB
:10019000C5DF010E266E010E276E530E286EC5DFD9
:1001A000490E266EEFDF4E0E266EECDF410E266EF8
:1001B000E9DF4C0E266EE6DF200E266EE3DF520EE0
:1001C000266EE0DF4F0E266EDDDF540E266EDADF80
:1001D000410E266ED7DF430E266ED4DF410E266E0B
:1001E000D1DF4F0E266ECEDF020E266E010E276E79
:1001F000490E286E9ADF4E0E266EC4DF440E266E20
:10020000C1DF550E266EBEDF430E266EBBDF410EEC
:10021000266EB8DF4F0E266EB5DF3A0E266EB2DFC1
:10022000020E266E0B0E276E2D0E286E7EDF3E0E02
:06023000266EA8DF12009B
:1002360081A802D01BAC1B8C81AA02D01BA61B86F0
:1002460081AC02D01BA81B8881AE02D01BAA1B8AD8
:1002560081B808D01BAC06D01BB004D01B9C1B8EEB
:100266001B841B8281BA10D01BA60ED01BB00CD0EB
:100276001B9619501C5C05E319501D5C02E2190619
:1002860002D01DC019F01B8281BC10D01BA80ED055
:100296001BB00CD01B981C50195C05E2000E195CB3
:1002A60002E3192A02D01CC019F01B8281BE0BD0B2
:1002B6001BAA09D01BA004D01B9A1B901B8203D03B
:0802C6001B9A1B841B8212002D
:1002CE00020E1C6E010E1D6E266A16DF1BBE0CD0B2
:1002DE001BB401D0FDD71B9419C026F0ECDE00C074
:0C02EE0019F01BBE00D0F2D71B9E1200BE
:1002FA0010DF010E266E010E276E530E286E10DFD8
:10030A00490E266E3ADF4E0E266E37DF410E266EF6
:10031A0034DF4C0E266E31DF200E266E2EDF520E93
:10032A00266E2BDF4F0E266E28DF540E266E25DF33
:10033A00410E266E22DF430E266E1FDF410E266E09
:10034A001CDF4F0E266E19DF020E266E010E276E77
:10035A00480E286EE5DE410E266E0FDF4C0E266E25
:10036A000CDF4C0E266E09DF3A0E266E06DF020EF1
:10037A00266E0B0E276E2D0E286ED2DE3E0E266ED0
:04038A00FCDE120083
:10038E00010E1C6E010E1D6E010E266EB5DE1BBE1D
:10039E000CD01BB401D0FDD71B9419C026F08BDEF8
:0E03AE0000C019F01BBE00D0F2D71B9E12003B
:1003BC00880ED56EB10ED76EE00ED66EF294F19417
:0403CC00F28A12009F
:1003D000F2A407D0F294B10ED76EE00ED66E837001
:0403E0002ADF1200FE
:1003E4009EA006D09E90B10ECF6EE00ECE6E8370AE
:0203F4001200F5
:1003F60092DE010E266E040E276E4A0E286E92DEDF
:10040600430E266EBCDE200E266EB9DE4D0E266E1F
:10041600B6DE4F0E266EB3DE440E266EB0DE550EE9
:10042600266EADDE4C0E266EAADE4F0E266EA7DEBB
:10043600530E266EA4DE020E266E010E276E530E96
:10044600286E70DE490E266E9ADE4D0E266E97DEFB
:10045600550E266E94DE200E266E91DE440E266E16
:100466008EDE450E266E8BDE200E266E88DE430E51
:10047600266E85DE450E266E82DE4E0E266E7FDEEB
:10048600540E266E7CDE520E266E79DE410E266EE8
:1004960076DE490E266E73DE530E266E70DE120071
:1004A600020E1C6E010E1D6E1BB40CD004D06DDE48
:1004B60008D020DF06D01950010AF9E01950020AC7
:1004C600F8E0F2D71B9419C026F0F9DD00C019F048
:1004D6001BBE1ED01A04006E016A000E015A1E0EC3
:1004E6000024246E000E0120256E04D0EDDE10D00F
:1004F6004BDF0ED024C0E9FF25C0EAFFEE50010A0B
:10050600F5E024C0E9FF25C0EAFFEE50020AF0E05C
:040516001B9E120016
:10051A000900F5CFE6FF0006FBE10106F9E112004A
:10052A00959695949598959A959C959E839683947D
:10053A00839E839C839A839871DD70DD6FDD838A45
:10054A008388838676DD839669DD838672DD83966A
:10055A0065DD83866EDD839661DD8398838669DD3A
:10056A0083965CDD838665DD8396839A838E838694
:10057A0060DD839653DD839E838883865ADD839666
:10058A008398838656DD839649DD838652DD83967A
:10059A00838883864EDD839641DD8398838649DD91
:1005AA008396838E838C838A8388838642DD8396AF
:0605BA0035DD2380120074
:0405C00011DF110036
:1005C40000C018F0156ED8CF16F0E0CF17F0FEDE9D
:1005D4001750E06E1650D86E153A153818C000F052
:0205E400100005
:1005E6000DEC03F0F28EF28CD08E956AF80E936EB7
:1005F600C26A0F0EC16E1B801B82DDDE93DF0C0EFE
:10060600296E1FDD1BA002D0F3DE01D049DFFAD729
:02061600FFD70C
:10061A0010EE19F0010E006E010E016E180EF66E44
:0E062A00060EF76E000EF86E8DEC02F0120058
:0106180001E0
:020000040030CA
:0E000000000C1E1EFF0381FF0FC00FE00F401B
:00000001FF
