:1000000080EF02F0000000006EEF02F00000000040
:0C00100000000000000000009FEF02F064
:0C001C00000000000000000000001200C6
:10002800240E0C6EB50E0D6E0D2EFED70C2EFCD7C1
:06003800000000001200B0
:0A003E00530E0D6E0D2EFED71200BA
:10004800086A096A100E0C6E013408360936045025
:10005800085E0550D8A0053C095ED8B007D004500A
:1000680008260550D8B0053C0926D8900036013638
:060078000C2EEAD7120075
:10007E0034BE02D0839E01D0838E34BC02D0839CCA
:10008E0001D0838C34BA02D0839A01D0838A34B8DB
:10009E0002D0839801D0838822B202D0838401D00B
:1000AE0083948386B4DF839634B602D0839E01D0C8
:1000BE00838E34B402D0839C01D0838C34B202D0B0
:1000CE00839A01D0838A34B002D0839801D083887A
:1000DE0022B202D0838401D08394838698DF8396E4
:0C00EE0022A202D09ADF01D0A3DF120092
:1000FA00316A050E315C0AE231502F24E16E000E9E
:10010A003020E26E200EE66E312AF3D731502F24CA
:10011A00E16E000E3020E26EE66A310631502F247D
:10012A00326E000E3020336E0A0E046E000E056E1B
:10013A002DC000F02EC001F082DF08C000F009C017
:10014A0001F0300E002632C0E1FF33C0E2FF00C0EA
:10015A00E6FF0A0E046E000E056E2DC000F02EC0DA
:10016A0001F06DDF00C02DF001C02EF0000E011865
:10017A0002E1000E001801E102D03106CFD71200C9
:0C018A0022922DC034F076DF2282120099
:100196000FD0800E236E19D0C00E236E16D0940E8B
:1001A600236E13D0D40E236E10D0800E236E0DD086
:1001B6002350010AEEE02350020AEEE02350030A20
:1001C600EEE02350040AEEE0F0D72404006E23503C
:1001D600002600C023F0228200C034F04DDF2292B8
:0A01E60025C034F049DF2282120028
:1001F000296A2A6A23C02BF024C02CF0800E241810
:10020000006E800E005C02E1000E235C0BE2010E2A
:10021000296E000E2A6E235000082B6E24C02CF08D
:10022000000E2C562BC02DF02CC02EF025C02FF028
:1002300026C030F062DF060E276E000E286E000E1C
:10024000006E2850005C02E12750000819E2275098
:100250002524E16E28502620E26E010E275C006EF8
:10026000000E2858016E00502524E96E015026200A
:10027000EA6EEECFE6FF010E275E000E285ADFD7AA
:1002800025C0E1FF26C0E2FF200EE66E29502A10AD
:100290001AE0276A286A27502524E96E285026206C
:1002A000EA6EEE50200A03E1274A282AF4D7010E0D
:1002B000275E000E285A27502524E16E285026205C
:0802C000E26E2D0EE66E120045
:1002C8000FD0800E236E19D0C00E236E16D0940E58
:1002D800236E13D0D40E236E10D0800E236E0DD053
:1002E8002350010AEEE02350020AEEE02350030AED
:1002F800EEE02350040AEEE0F0D72404006E235009
:10030800002600C023F000C034F0B5DE2292276A30
:1003180027502524E96E000E2620EA6EEE520BE0E7
:1003280027502524E96E000E2620EA6EEECF2DF028
:0A03380028DF272AEDD722821200E9
:100342000900F5CFE6FF0006FBE10106F9E1120024
:1003520081AC02D022A6228681AE02D022A42284BF
:1003620081BC0BD022A609D02280229681801A2A33
:100372000B0E1A5C02E3010E1A6E81BE15D022A486
:1003820013D02280229481801A061A50000802E3B8
:100392000A0E1A6E81828192016A01501A1804E0D3
:0C03A20081808190012AF9D7819012001F
:1003AE00959695949598959A959C959E83968394FB
:1003BE00839E839C839A839830DE2FDE2EDE838A83
:1003CE008388838624DE839628DE838620DE8396CA
:1003DE0024DE83861CDE839620DE8398838617DEDA
:1003EE0083961BDE838613DE8396839A838E8386A3
:1003FE000EDE839612DE839E8388838608DE8396C6
:10040E008398838604DE839608DE838600DE8396D9
:10041E0083888386FCDD839600DE83988386F7DDF2
:10042E008396838E838C838A83888386F0DD83967E
:06043E00F4DD2282120031
:10044400010E236E010E246E4A0E256EA2DE430EAB
:100454002D6E99DE200E2D6E96DE4D0E2D6E93DEE2
:100464004F0E2D6E90DE440E2D6E8DDE550E2D6ECC
:100474008ADE4C0E2D6E87DE4F0E2D6E84DE530EFB
:100484002D6E81DE020E236E010E246E500E256E3B
:1004940080DE4F0E2D6E77DE530E2D6E74DE3A0E17
:1004A4002D6E71DE1AC023F0000E246E1B0E256E15
:1004B400000E266E9BDE020E236E060E246E1B0EAD
:0A04C400256E000E266EFEDE12000B
:0E04CE0022A004D0010E346ED3DD2290120065
:1004DC0000C019F001C018F0F2A407D0F294B10ECC
:1004EC00D76EE00ED66E83702EDF19C000F018C0E8
:0404FC0001F01100FA
:10050000010E1A6EF28EF28CD08E956AF80E936EF2
:10051000C26A0F0EC16E229622942280880ED56E7A
:10052000B10ED76EE00ED66EF294F184F28A3FDF00
:0E0530000C0E346EA4DDCBDF85DFFDD7FFD7C8
:10053E00156ED8CF16F0E0CF17F01750E06E1650AC
:08054E00D86E153A15381000B3
:020000040030CA
:0E000000000C1E1EFF0381FF0FC00FE00F401B
:00000001FF
