:10000000F5EF03F00000000000EF00F0000000003A
:0C001000000000000000000018EF04F0E9
:0C001C00000000000000000000001200C6
:10002800240E0C6EB50E0D6E0D2EFED70C2EFCD7C1
:06003800000000001200B0
:0A003E00530E0D6E0D2EFED71200BA
:1000480057BE02D08C9E01D08C8E57BC02D08C9C9F
:1000580001D08C8C57BA02D08C9A01D08C8A57B8B0
:1000680002D08C9801D08C883ABE02D08C8401D002
:100078008C948C86CFDF8C9657B602D08C9E01D09C
:100088008C8E57B402D08C9C01D08C8C57B202D085
:100098008C9A01D08C8A57B002D08C9801D08C8869
:1000A8003ABE02D08C8401D08C948C86B3DF8C96B7
:0C00B8003AAE02D0B5DF01D0BEDF12006E
:1000C400086A080E0C6E003408360450085ED8B076
:0E00D40002D00826D89000360C2EF5D7120068
:0C00E2003A9E56C057F0AFDF3A8E120075
:1000EE00536A030E535C0AE253505124E16E000E24
:1000FE005220E26E200EE66E532AF3D7535051244F
:10010E00E16E000E5220E26EE66A53065350512401
:10011E00546E000E5220556E0A0E046E50C000F042
:10012E00CADF08C000F0300E002654C0E1FF55C0F3
:10013E00E2FF00C0E6FF0A0E046E50C000F0BBDF07
:10014E0000C050F00050000A01E102D05306DED785
:02015E0012008D
:100160000FD0800E506E19D0C00E506E16D0940E67
:10017000506E13D0D40E506E10D0800E506E0DD035
:100180005050010AEEE05050020AEEE05050030ACF
:10019000EEE05050040AEEE0F0D75104006E5050EB
:1001A000002600C050F000C057F04EDF3A9E546A5F
:1001B00054505224E96E000E5320EA6EEE520BE0CA
:1001C00054505224E96E000E5320EA6EEECF56F0E2
:0A01D00088DF542AEDD73A8E1200A2
:0E01DA003AA004D0010E576E32DF3A901200A8
:1001E8000FD0800E506E19D0C00E506E16D0940EDF
:1001F800506E13D0D40E506E10D0800E506E0DD0AD
:100208005050010AEEE05050020AEEE05050030A46
:10021800EEE05050040AEEE0F0D75104006E505062
:10022800002600C050F03A8E00C057F009DF3A9E11
:0A02380052C057F005DF3A8E1200A5
:10024200526A536A50C003F051C004F050C005F026
:1002520051C006F003C0E9FF04C0EAFFEE50200AD5
:1002620004E15250531001E110D0010E526E000E03
:10027200536E03C0E9FF04C0EAFF05C0E1FF06C0F8
:10028200E2FFEECFE6FF054A062A03C001F004C0F2
:1002920002F0034A042A01C0E9FF02C0EAFFEE505D
:0E02A200000AD8E150C000F051C001F0120077
:1002B00094DF960E3B6E426A010E506E010E516E37
:1002C000510E526E91DF550E566E0BDF410E566E7B
:1002D00008DF4E0E566E05DF540E566E02DF200EFE
:1002E000566EFFDE450E566EFCDE530E566EF9DE80
:1002F000500E566EF6DE410E566EF3DE430E566E0F
:10030000F0DE4F0E566EEDDE530E566EEADE200E18
:10031000566EE7DE3A0E566EE4DE4EC050F0430EE7
:10032000516E000E526EE3DE020E506E020E516EE2
:0C033000430E526E000E536E13DF1200DD
:10033C004EDF960E3B6E426A010E506E010E516EF0
:10034C00510E526E4BDF550E566EC5DE410E566E7B
:10035C00C2DE4E0E566EBFDE540E566EBCDE200E46
:10036C00566EB9DE440E566EB6DE450E566EB3DED4
:10037C004E0E566EB0DE540E566EADDE450E566EFB
:10038C00AADE530E566EA7DE200E566EA4DE3A0E73
:10039C00566EA1DE4EC050F0430E516E000E526EE2
:1003AC00A0DE020E506E020E516E430E526E000E07
:0603BC00536ED0DE1200BA
:1003C2000BDF010E506E010E516E530E526E0BDF9B
:1003D200490E566E85DE4E0E566E82DE410E566E0A
:1003E2007FDE4C0E566E7CDE200E566E79DE460E99
:1003F200566E76DE4F0E566E73DE4E0E566E70DE03
:10040200490E566E6DDE430E566E6ADE410E566E14
:1004120067DE200E566E64DE3A0E566E61DE4EC008
:1004220050F0430E516E000E526E60DE430E506E5F
:10043200000E516E05DF00C052F001C053F0020EF3
:10044200506E010E516E8BDE020E506E040E516E16
:100452002D0E526EC8DE4FC050F0430E516E000E8C
:10046200526E44DE430E506E000E516EE9DE00C045
:1004720052F001C053F0020E506E060E516E6FDE46
:02048200120066
:100484003AB20DD03C0EE16E000EE26E3950E12618
:10049400D8B0E22A4EC0E6FF392A4E6A0ED039504F
:1004A40000080BE239063C0EE96E000EEA6E395084
:1004B400E926D8B0EA2AEECF4EF04EC000F0120082
:1004C40081A802D03AAC3A8C81AA02D03AA63A86E4
:1004D40081AC02D03AA83A8881AE02D03AAA3A8ACC
:1004E40081B806D03AAC04D03A9C3A823A843A8035
:1004F40081BA0ED03AA60CD03A9641503B5C05E343
:100504004150425C02E2410602D042C041F03A80CE
:1005140081BC0ED03AA80CD03A983B50415C05E21D
:10052400000E415C02E3412A02D03BC041F03A8014
:1005340081BE05D03AAA03D03A9A3A843A8012008E
:100544004ADE010E3B6E426A010E506E010E516E80
:10055400540E526E47DE490E566EC1DD500E566E75
:10056400BEDD4F0E566EBBDD200E566EB8DD530E4B
:10057400566EB5DD490E566EB2DD4E0E566EAFDDCB
:10058400410E566EACDD4C0E566EA9DD200E566E35
:10059400A6DD3A0E566EA3DD020E506E010E516EAC
:1005A400040E026E4CC000F0000E016E025005E015
:1005B400003600900136FF0FFAD7190E0024526E50
:0A05C400000E0120536ECADD120084
:1005CE003AB227D03C0E416E3AB404D041C04EF040
:1005DE00AEDEFAD73A9441C04CF0416A3AB404D038
:1005EE0041C04EF05EDEFAD73A9441C04DF0416AFA
:1005FE003AB406D04CC04EF04DC04FF0DBDEF8D70B
:10060E003A9441C04EF037DF00C041F03AB200D00C
:06061E00D7D73A9212004A
:10062400880ED56EB10ED76EE00ED66EF28AF194B6
:020634001200B2
:10063600F2A406D0F294B10ED76EE00ED66E3FDF6E
:020646001200A0
:10064800959695949598959A959C959E8C968C944C
:100658008C9E8C9C8C9A8C98E3DCE2DCE1DC8C8AA6
:100668008C888C86D7DC8C96DBDC8C86D3DC8C96ED
:10067800D7DC8C86CFDC8C96D3DC8C988C86CADC55
:100688008C96CEDC8C86C6DC8C968C9A8C8E8C866E
:10069800C1DC8C96C5DC8C9E8C888C86BBDC8C96E9
:1006A8008C988C86B7DC8C96BBDC8C86B3DC8C96FD
:1006B8008C888C86AFDC8C96B3DC8C988C86AADC14
:1006C8008C968C8E8C8C8C8A8C888C86A3DC8C96F1
:0606D800A7DC3A8E1200BF
:1006DE003AB222D03AB404D041C04CF02CDFFAD753
:1006EE003A9441C04EF0C7DE00C041F03904006EAE
:1006FE00016A000E015A3C0E00244A6E000E0120C3
:10070E004B6E02D05DDF07D04AC0E9FF4BC0EAFF57
:0C071E00EE50000AF7E0DCD73A9212001F
:10072A000900F5CFE6FF0006FBE10106F9E1120038
:10073A004FDD010E506E040E516E4A0E526E4FDDA1
:10074A00430E566EC9DC200E566EC6DC4D0E566E32
:10075A00C3DC4F0E566EC0DC440E566EBDDC550E21
:10076A00566EBADC4C0E566EB7DC4F0E566EB4DCC3
:10077A00530E566EB1DC020E506E010E516E530EC0
:10078A00526E2DDD490E566EA7DC4D0E566EA4DC58
:10079A00550E566EA1DC200E566E9EDC440E566E29
:1007AA009BDC450E566E98DC200E566E95DC430E89
:1007BA00566E92DC450E566E8FDC4E0E566E8CDCF3
:1007CA00540E566E89DC520E566E86DC410E566EFB
:1007DA0083DC490E566E80DC530E566E7DDC1200A9
:1007EA0039EC04F0F28EF28CD08E17DFC26A0F0E4B
:1007FA00C16EF00E936E956A22DF0C0E576E1FDCE7
:10080A0097DF270E0B6E0D0E0C6E260E0D6E0D2E3B
:10081A00FED70C2EFCD70B2EFAD700003A80D8DC74
:06082A0059DFFED7FFD7E5
:1008300000C018F0156ED8CF16F0E0CF17F0FBDE31
:100840001750E06E1650D86E153A153818C000F0E3
:02085000100096
:1008720010EE19F0200E006E010E016E520EF66E91
:0E088200080EF76E000EF86E95EC03F01200F3
:1008520053494E414C20494E44555449564F00008D
:1008620053494E414C2048414C4C000000000000CE
:020000040030CA
:0E000000000C1F1EFF0381FF0FC00FE00F401A
:00000001FF
