:1000000005EF07F0000000003DEF07F000000000E2
:0C00100000000000000000002CEF07F0D2
:10001C00240E0C6EB50E0D6E0D2EFED70C2EFCD7CD
:06002C00000000001200BC
:0A003200530E0D6E0D2EFED71200C6
:0C003C00000000000000000000001200A6
:1000480000017ABF02D08C9E01D08C8E7ABD02D07E
:100058008C9C01D08C8C7ABB02D08C9A01D08C8A73
:100068007AB902D08C9801D08C8855B202D08C8491
:1000780001D08C948C86DEDF8C967AB702D08C9E69
:1000880001D08C8E7AB502D08C9C01D08C8C7AB33E
:1000980002D08C9A01D08C8A7AB102D08C9801D087
:1000A8008C8855B202D08C8401D08C948C86C2DFA7
:0E00B8008C9655A202D0AEDF01D0B7DF120049
:0C00C600559279C07AF0BDDF558212001F
:1000D200086A080E0C6E003408360450085ED8B068
:0E00E20002D00826D89000360C2EF5D712005A
:1000F00046A405D0010E00017A6FA6DF46941200D7
:100100000001756B766B73C003F074C004F073C0AC
:1001100005F074C006F003C0E9FF04C0EAFFEE502A
:10012000200A04E17551761101E110D0010E756FBE
:10013000000E766F03C0E9FF04C0EAFF05C0E1FFCF
:1001400006C0E2FFEECFE6FF054A062A03C001F033
:1001500004C002F0034A042A01C0E9FF02C0EAFF1A
:10016000EE50000AD8E173C000F074C001F0120034
:1001700010D0800E0001736F1AD0C00E736F17D0AD
:10018000940E736F14D0D40E736F11D0800E736FF2
:100190000ED000017351010AECE07351020AEDE048
:1001A0007351030AEDE07351040AEDE0EFD77405D3
:1001B000006E7351002600C073F000C07AF044DF77
:1001C0005592776B77517525E96E000E7621EA6EB0
:1001D000EE520BE077517525E96E000E7621EA6E3E
:0E01E000EECF79F070DF772BEDD7558212004D
:1001EE000001766B030E765D0AE276517425E16EA0
:1001FE00000E7521E26E200EE66E762BF3D7765149
:10020E007425E16E000E7521E26EE66A7607765170
:10021E007425776F000E7521786F0A0E046E73C009
:10022E0000F050DF08C000F0300E002677C0E1FF6E
:10023E0078C0E2FF00C0E6FF0A0E046E73C000F045
:10024E0041DF00C073F00050000A01E102D07607D2
:04025E00DED71200D5
:100262000B840BAE3CEF01F0010E036E026A016AD1
:0A027200006A0A360232FF0E120085
:0E027C00026A016A006A086A036A000E120034
:10028A0010D0800E0001736F1AD0C00E736F17D092
:10029A00940E736F14D0D40E736F11D0800E736FD7
:1002AA000ED000017351010AECE07351020AEDE02D
:1002BA007351030AEDE07351040AEDE0EFD77405B8
:1002CA00006E7351002600C073F0558200C07AF0A8
:0E02DA00B6DE559275C07AF0B2DE5582120083
:0802E8000AAE029E000E120096
:1002F0000B800BAE84EF01F0026A0AAEFF0E026EB5
:0C030000016E006E0A360232FF0E120081
:10030C00F1DE960E486E000E496E526A536A010E6B
:10031C000001736F010E746F510E756FB0DF550EC7
:10032C00796FCBDE410E796FC8DE4E0E796FC5DE6C
:10033C00540E796FC2DE200E796FBFDE450E796FD9
:10034C00BCDE530E796FB9DE500E796FB6DE410EFE
:10035C00796FB3DE430E796FB0DE4F0E796FADDE81
:10036C00530E796FAADE200E796FA7DE3A0E796FE5
:10037C00A4DE72C073F0570E746F000E756F31DF10
:10038C00020E736F020E746F570E756F000E766F40
:04039C00E9DE120084
:1003A0000B820BAEDAEF01F00368026801680068A7
:0803B0000A360232FF0E1200B2
:1003B8000C6A0E6A0250D8A4F5EF01F001C002F0F1
:1003C80000C001F0006A0E860250D8A4F5EF01F0D3
:1003D80001C002F0016A0E960E880250D8B407EFE9
:1003E80002F00E50035ED8A4D8A00CEF02F0D8900B
:1003F80002BE11EF02F0003601360236032EFCEF82
:1004080001F00CEF02F0010E0C6E34DF14EF02F075
:10041800020E0C6E22DF14EF02F0040E0C6E60DF89
:020428001200C0
:10042A0062DE010E0001736F010E746F530E756F59
:10043A0027DF490E796F42DE4E0E796F3FDE410E9D
:10044A00796F3CDE4C0E796F39DE200E796F36DE1D
:10045A00460E796F33DE4F0E796F30DE4E0E796FAE
:10046A002DDE490E796F2ADE430E796F27DE410EA3
:10047A00796F24DE200E796F21DE3A0E796F1EDE47
:10048A00020E736F100E746F250E756FF9DE4AC077
:10049A0073F0570E746F000E756FA4DE570E736FEC
:1004AA00000E746F28DE00C075F001C076F0020EEF
:1004BA00736F010E746F57DE020E736F030E746F43
:1004CA002D0E756FDDDE47C073F0570E746F000E88
:1004DA00756F88DE570E736F000E746F0CDE00C0E6
:1004EA0075F001C076F0020E736F040E746F3BDE76
:1004FA0056C073F05E0E746F000E756F73DE5E0E7B
:10050A00736F000E746FF7DD00C075F001C076F0EE
:0C051A00020E736F0D0E746F26DE1200CF
:10052600E4DD020E4A6E010E476E010E0001736F86
:10053600010E746F530E756FA5DE490E796FC0DD1F
:100546004E0E796FBDDD410E796FBADD4C0E796FB7
:10055600B7DD200E796FB4DD480E796FB1DD410E3F
:10056600796FAEDD4C0E796FABDD4C0E796FA8DD81
:10057600200E796FA5DD3A0E796FA2DD020E736F3C
:10058600100E746F250E756F7DDE56C073F05E0E0D
:10059600746F000E756F28DE5E0E736F000E746F3B
:1005A600ACDD00C075F001C076F0020E736F0D0E63
:0605B600746FDBDD120092
:0A05BC008C908C928A96CD9012006C
:0405C600CD801200D2
:1005CA0092DD960E486E000E496E526A536A010E0B
:1005DA000001736F010E746F510E756F51DE550E67
:1005EA00796F6CDD410E796F69DD4E0E796F66DDCC
:1005FA00540E796F63DD200E796F60DD440E796FDA
:10060A005DDD450E796F5ADD4E0E796F57DD540E5A
:10061A00796F54DD450E796F51DD530E796F4EDDDA
:10062A00200E796F4BDD3A0E796F48DD72C073F098
:10063A00570E746F000E756FD5DD020E736F020EC2
:0E064A00746F570E756F000E766F8DDD120007
:100658000B6A0C6A0A6A0350D8B461EF03F00A9E69
:10066800028E860E035E03BE3FEF03F0D8B43FEF61
:1006780003F064EF03F0036C080E035CD8A04DEFA1
:1006880003F0036E0236026A0350D8A4D89056EFDE
:1006980003F00350D8B456EF03F0D8900232032E7B
:1006A80051EF03F00BBC02A061EF03F0D8A061EF9B
:1006B80003F0022AD8B46BEF03F0016A70EF03F07D
:1006C8000B800BAE74EF03F0016A74EF03F0010EB8
:1006D8000C6E0ADE76EF03F0000E0C6E76EF03F078
:0A06E800FF0E0C6E0250006E1200AF
:1006F20081A802D055A0558081AA02D046AC468C72
:1007020081AC02D046AA468A81AE02D046AE468E5F
:1007120081B806D055A004D05590468646884684B6
:1007220081BA14D046AC12D0469C000E495C02E15C
:100732005150485C08E3000E535C02E15150525C98
:1007420002E2510602D052C051F0468481BC13D05D
:1007520046AA11D0469A000E006E4950005C02E192
:100762004850515C05E2000E515C02E3512A02D06E
:1007720048C051F0468481BE05D046AE03D0469EA5
:06078200468846841200C7
:100788000050086E0150006E016A026A036A0B6A23
:100798000C6A960E036E0A6A00C001F008C000F0E9
:0807A800086A026A05DE120076
:1007B000086A096A000E076203645DEF04F00250E4
:1007C00006180A6E075003267E0ED8A0EEEF03F03F
:1007D000035ED8B061EF04F0F2EF03F0035ED8A03F
:1007E00065EF04F0028E068E02C00EF001C00BF021
:1007F00000C00DF000500402F4CF0CF001500502CF
:10080000F4CF00F0F3CF08F00402F3500C26F450BC
:100810000822000E00220D500502F3500C26F45061
:100820000822000E002202500402F3500826F45061
:10083000002202500502016A000E0122F350002638
:10084000F45001220D500602F3500826F450002205
:10085000026A000E012202220B500602F35000260B
:10086000F4500122000E02220E500602F35001261F
:10087000F450022202BE45EF04F00836003601367D
:1008800002360306D8B465EF04F058EF04F0D880C0
:10089000800E08640030000E002201220222D8A03F
:1008A00058EF04F0023201320032034A61EF04F0E3
:1008B0000AAE029E000E67EF04F0010EDFDC67EF68
:1008C00004F0020E6DDD67EF04F0040ECADC1200C6
:1008D00081A802D055A0558081AA02D046AC468C92
:1008E00081AC02D046AA468A81AE02D046AE468E80
:1008F00081B806D055A004D05590468646884684D7
:1009000081BA1AD046AC18D0469C2550EA0A02E1BA
:10091000970E241807E02550EA0802E12450CE087B
:1009200001E205D0970E246EEA0E256E04D0370E34
:10093000245E000E255A468481BC1AD046AA18D0DF
:10094000469A2550FF0A02E1FF0E241807E0FF0E29
:10095000255C02E1C80E245C01E205D0FF0E246E86
:10096000FF0E256E04D0370E2426000E2522468465
:1009700081BE05D046AE03D0469E4688468412000E
:1009800046B60AD020DE468246B802D0CCDDFCD77F
:0C0990004692469813DEF4D746961200FB
:10099C0046B620D03C0E516E46B804D051C072F011
:1009AC000EDEFAD7469851C04AF0516A46B804D0C8
:1009BC0051C072F0A5DCFAD7469851C047F0516A85
:1009CC004680FBDD46B802D02ADDFCD7469046981F
:0809DC00EFDDDED746961200A4
:1009E40078EC00F0010E486E000E496E526A536AAC
:1009F400010E0001736F010E746F540E756F43DCAA
:100A0400490E796F63EC00F0500E796F63EC00F0DF
:100A14004F0E796F63EC00F0200E796F63EC00F0F9
:100A2400530E796F63EC00F0490E796F63EC00F0BC
:100A34004E0E796F63EC00F0410E796F63EC00F0B9
:100A44004C0E796F63EC00F0200E796F63EC00F0CC
:100A54003A0E796F63EC00F0020E736F010E746F3F
:100A6400040E026E71C000F0000E016E025005E02B
:100A7400003600900136FF0FFAD7260E0024756F5A
:0C0A8400000E0120766FB8EC00F01200AC
:100A900046B60ED04B0EE16E000EE26E5050E126CF
:100AA000D8B0E22A71C0E6FF502A0001716B0ED067
:100AB000505000080BE250064B0EE96E000EEA6E35
:100AC0005050E926D8B0EA2AEECF71F071C000F09C
:020AD000120012
:100AD200400ECD6E970ECE6EEA0ECF6E9D809F8039
:020AE200120000
:100AE4009EA069D046B24CD0542A4AC004F0000EED
:100AF400056E04360536049047C000F0000E016E02
:100B04000036013600900050045C026E0150055816
:100B1400036E800E006E800E0318005C02E102502A
:100B2400545CD8A08C704AC004F0000E056E0436E4
:100B34000536049047C000F0000E016E0036013601
:100B440000900050045C026E01500558036E800E44
:100B5400006E800E0318005C02E10250545CD8B0B1
:100B64008C904AC001F0000E026E013602360190EC
:100B7400000E021802E101505418D8B4546A01D08E
:100B84008C72CE6A25C000F0016A00C0CFFF600EEF
:100B9400245C006EEA0E2558016EF4DDBC0E046E72
:100BA400740E056E130E066E790E076EFFDD52DDB0
:080BB40000C056F09E901200F3
:100BBC0078EC00F0010E0001736F040E746F4A0E96
:100BCC00756F45EC01F0430E796F63EC00F0200E6D
:100BDC00796F63EC00F04D0E796F63EC00F04F0E03
:100BEC00796F63EC00F0440E796F63EC00F0550EF6
:100BFC00796F63EC00F04C0E796F63EC00F04F0EE4
:100C0C00796F63EC00F0530E796F63EC00F0020E19
:100C1C00736F010E746F530E756F45EC01F0490E36
:100C2C00796F63EC00F04D0E796F63EC00F0550EAC
:100C3C00796F63EC00F0200E796F63EC00F0440EDA
:100C4C00796F63EC00F0450E796F63EC00F0200EC9
:100C5C00796F63EC00F0430E796F63EC00F0450E96
:100C6C00796F63EC00F04E0E796F63EC00F0540E6C
:100C7C00796F63EC00F0520E796F63EC00F0410E6B
:100C8C00796F63EC00F0490E796F63EC00F0530E52
:080C9C00796F63EC00F0120017
:100CA40046B62CD046B804D051C071F099DEFAD7BC
:100CB400469851C071F0EADE00C051F05004006E55
:100CC400016A000E015A4B0E002400016F6F000EE2
:100CD4000120706F04D060DE10D050DE0ED06FC0E3
:100CE400E9FF70C0EAFFEE50000AF5E06FC0E9FFCB
:100CF40070C0EAFFEE50010AF0E0D2D74696120027
:100D04000900F5CFE6FF0006FBE10106F9E1120058
:100D1400959695949598959A959C959E8C968C9479
:100D24008C9E8C9C8C9A8C980EEC00F00EEC00F04F
:100D34000EEC00F08C8A8C888C861EEC00F08C966D
:100D44000EEC00F08C861EEC00F08C960EEC00F09D
:100D54008C861EEC00F08C960EEC00F08C988C8641
:100D64001EEC00F08C960EEC00F08C861EEC00F06D
:100D74008C968C9A8C8E8C861EEC00F08C960EECE5
:100D840000F08C9E8C888C861EEC00F08C968C98DF
:100D94008C861EEC00F08C960EEC00F08C861EEC1B
:100DA40000F08C968C888C861EEC00F08C960EECF1
:100DB40000F08C988C861EEC00F08C968C8E8C8CBB
:100DC4008C8A8C888C861EEC00F08C960EEC00F0DD
:040DD4005582120032
:100DD800880ED56EB10ED76EE00ED66EF28AF194FB
:020DE8001200F7
:100DEA00F2A40DD0F294B10ED76EE00ED66E46B0D4
:100DFA0003D046B201D002D066DD01D075DC120004
:100E0A007CEC07F0F28EF28CD08EE1DF5DDEC26AF6
:100E1A000F0EC16EF00E936E956A77DF0C0E00010D
:100E2A007A6F24EC00F0C5DE270E0B6E0D0E0C6EE9
:100E3A00260E0D6E0D2EFED70C2EFCD70B2EFAD7D2
:0E0E4A000000468478EC00F028DFFED7FFD7CA
:100E580000C018F0156ED8CF16F0E0CF17F0C1DF3C
:100E68001750E06E1650D86E153A153818C000F0B5
:020E7800100068
:100E7A0000C023F001C022F002C021F003C020F01C
:100E8A0004C01FF005C01EF006C01DF008C01CF00B
:100E9A000BC01BF00CC01AF00DC019F01EDE23C0E7
:100EAA0000F022C001F021C002F020C003F01FC0F0
:100EBA0004F01EC005F01DC006F01CC008F01BC0DF
:0C0ECA000BF01AC00CF019C00DF0110064
:100EF80010EE24F0220E006E010E016ED60EF66E74
:0E0F08000E0EF76E000EF86E82EC06F0120070
:020ED60097EA99
:100ED80053494E414C20494E44555449564F000001
:100EE80053494E414C2048414C4C00000000000042
:020000040030CA
:0E000000000C1F1EFF0381FF0FC00FE00F401A
:00000001FF
