:10000000D9EF02F00000000000EF00F00000000057
:0C0010000000000000000000C1EF02F042
:10001C00240E0C6EB50E0D6E0D2EFED70C2EFCD7CD
:06002C00000000001200BC
:0C003200000000000000000000001200B0
:0A003E00530E0D6E0D2EFED71200BA
:1000480000017DBF02D08C9E01D08C8E7DBD02D078
:100058008C9C01D08C8C7DBB02D08C9A01D08C8A70
:100068007DB902D08C9801D08C886ABD02D08C846E
:1000780001D08C948C86D9DF8C967DB702D08C9E6B
:1000880001D08C8E7DB502D08C9C01D08C8C7DB338
:1000980002D08C9A01D08C8A7DB102D08C9801D084
:1000A8008C886ABD02D08C8401D08C948C86BDDF8C
:0E00B8008C966AAD02D0AEDF01D0BDDF120023
:0E00C60000016A9D7CC07DF0BCDF6A8D1200D7
:1000D40010D0800E0001776F1AD0C00E776F17D042
:1000E400940E776F14D0D40E776F11D0800E776F83
:1000F4000ED000017751010AECE07751020AEDE0DD
:100104007751030AEDE07751040AEDE0EFD7780563
:10011400006E7751002600C077F06A8D00C07DF034
:0E01240091DF6A9D79C07DF08DDF6A8D12003B
:1001320000016AA104D0010E7D6F85DF6A91120071
:1001420010D0800E0001776F1AD0C00E776F17D0D3
:10015200940E776F14D0D40E776F11D0800E776F14
:100162000ED000017751010AECE07751020AEDE06E
:100172007751030AEDE07751040AEDE0EFD77805F5
:10018200006E7751002600C077F000C07DF05BDF83
:100192006A9D7B6B7B517925E96E000E7A21EA6EAE
:1001A200EE520BE07B517925E96E000E7A21EA6E60
:0E01B200EECF7CF087DF7B2BEDD76A8D12003D
:1001C000B8DF010E6B6F726B010E776F010E786FE7
:1001D000460E796F7FDF490E7C6F75DF410E7C6FB5
:1001E00072DF540E7C6F6FDF200E7C6F6CDF2D0E84
:1001F0007C6F69DF200E7C6F66DF4D0E7C6F63DFE6
:100200004F0E7C6F60DF440E7C6F5DDF450E7C6FB0
:100210005ADF4C0E7C6F57DF4F0E7C6F54DF3A0E67
:100220007C6F51DF020E776F010E786F040E026E45
:1002300076C000F0000E016E025005E0003600901E
:100240000136FF0FFAD7490E0024796F000E012006
:060250007A6F77DF120057
:1002560000016AB30DD06C0EE16E000EE26E6951BC
:10026600E126D8B0E22A76C0E6FF692B766B0ED07F
:10027600695100080BE269076C0EE96E000EEA6E22
:100286006951E926D8B0EA2AEECF76F076C000F0BA
:02029600120054
:100298004CDF020E6B6F726B010E776F010E786F79
:1002A8004D0E796F13DF4F0E7C6F09DF4E0E7C6F9A
:1002B80006DF540E7C6F03DF410E7C6F00DF440EB7
:1002C8007C6FFDDE4F0E7C6FFADE520E7C6FF7DE20
:1002D800410E7C6FF4DE200E7C6FF1DE3A0E7C6FEF
:1002E800EEDE020E776F010E786F040E026E75C097
:1002F80000F0000E016E025005E000360090013655
:10030800FF0FFAD7190E0024796F000E01207A6FBB
:0403180014DF1200DC
:10031C0000016AB30FD06AB504D071C076F04ADF21
:10032C00FAD76A9571C076F090DF00C071F06AB3AD
:08033C0000D0EED76A93120015
:10034400959695949598959A959C959E8C968C9453
:100354008C9E8C9C8C9A8C985FDE5EDE5DDE8C8A33
:100364008C888C8664DE8C9657DE8C8660DE8C9658
:1003740053DE8C865CDE8C964FDE8C988C8657DE42
:100384008C964ADE8C8653DE8C968C9A8C8E8C8668
:100394004EDE8C9641DE8C9E8C888C8648DE8C9654
:1003A4008C988C8644DE8C9637DE8C8640DE8C9668
:1003B4008C888C863CDE8C962FDE8C988C8637DE7F
:1003C4008C968C8E8C8C8C8A8C888C8630DE8C9669
:0803D40023DE00016A8D120016
:1003DC0081A804D000016ABB01D06A8B81AA04D029
:1003EC0000016AB701D06A8781AC04D000016AB9F8
:1003FC0001D06A8981AE04D000016ABF01D06A8F36
:10040C0081B807D000016AAB04D06A9B6A836A8505
:10041C006A8181BA0FD000016AA70CD06A9771511A
:10042C006B5D05E37151725D02E2710702D072C01F
:10043C0071F06A8181BC0FD000016AA90CD06A9955
:10044C006B51715D05E2000E715D02E3712B02D000
:10045C006BC071F06A8181BE06D000016AAF03D017
:08046C006A9F6A856A81120093
:100474005EDE010E776F040E786F4A0E796F28DE08
:10048400430E7C6F1EDE200E7C6F1BDE4D0E7C6FD8
:1004940018DE4F0E7C6F15DE440E7C6F12DE550E97
:1004A4007C6F0FDE4C0E7C6F0CDE4F0E7C6F09DE12
:1004B400530E7C6F06DE020E776F010E786F530EBB
:1004C400796F06DE490E7C6FFCDD4D0E7C6FF9DD25
:1004D400550E7C6FF6DD200E7C6FF3DD440E7C6FD1
:1004E400F0DD450E7C6FEDDD200E7C6FEADD430E02
:1004F4007C6FE7DD450E7C6FE4DD4E0E7C6FE1DD45
:10050400540E7C6FDEDD520E7C6FDBDD410E7C6FA2
:10051400D8DD490E7C6FD5DD530E7C6FD2DD120021
:100524000900F5CFE6FF0006FBE10106F9E1120040
:1005340000016AB322D06AB504D071C075F0AADE96
:10054400FAD76A9571C076F084DE00C071F069054F
:10055400006E016A000E015A6C0E0024736F000EC7
:100564000120746F02D0D8DE07D073C0E9FF74C0D5
:0E057400EAFFEE50000AF7E0DBD76A931200B0
:1005820000C018F0156ED8CF16F0E0CF17F0F2A425
:1005920006D0F294B10ED76EE00ED66E1EDF175063
:1005A200E06E1650D86E153A153818C000F01000DB
:1005B2002BEC03F0F28EF28CD08E880ED56EB10E3B
:1005C200D76EE00ED66EF28AF194C26A0F0EC16E39
:1005D200F00E936E956AB5DE0C0E7D6F34DD49DF49
:1005E200270E0B6E0D0E0C6E260E0D6E0D2EFED707
:1005F2000C2EFCD70B2EFAD700006A8199DD99DF09
:04060200FED7FFD749
:1006560010EE19F0500E006E010E016E060EF66ECB
:0E066600060EF76E000EF86E92EC02F0120017
:1006060046494154202D3E00000000000000000035
:10061600464F5244202D3E0000000000000000001E
:10062600474D202D3E0000000000000000000000A5
:1006360049415720314737202D3E00000000000079
:100646004941572035394642202D3E000000000022
:020000040030CA
:0E000000000C1F1EFF0381FF0FC00FE00F401A
:00000001FF
