:10000000D3EF02F00000000000EF00F0000000005D
:0C0010000000000000000000F6EF02F00D
:10001C00240E0C6EB50E0D6E0D2EFED70C2EFCD7CD
:06002C00000000001200BC
:0C003200000000000000000000001200B0
:0A003E00530E0D6E0D2EFED71200BA
:1000480000017DBF02D08C9E01D08C8E7DBD02D078
:100058008C9C01D08C8C7DBB02D08C9A01D08C8A70
:100068007DB902D08C9801D08C886ABF02D08C846C
:1000780001D08C948C86D9DF8C967DB702D08C9E6B
:1000880001D08C8E7DB502D08C9C01D08C8C7DB338
:1000980002D08C9A01D08C8A7DB102D08C9801D084
:1000A8008C886ABF02D08C8401D08C948C86BDDF8A
:0E00B8008C966AAF02D0AEDF01D0BDDF120021
:0E00C60000016A9F7CC07DF0BCDF6A8F1200D3
:1000D40010D0800E0001776F1AD0C00E776F17D042
:1000E400940E776F14D0D40E776F11D0800E776F83
:1000F4000ED000017751010AECE07751020AEDE0DD
:100104007751030AEDE07751040AEDE0EFD7780563
:10011400006E7751002600C077F06A8F00C07DF032
:0E01240091DF6A9F79C07DF08DDF6A8F120037
:1001320000016AA104D0010E7D6F85DF6A91120071
:1001420010D0800E0001776F1AD0C00E776F17D0D3
:10015200940E776F14D0D40E776F11D0800E776F14
:100162000ED000017751010AECE07751020AEDE06E
:100172007751030AEDE07751040AEDE0EFD77805F5
:10018200006E7751002600C077F000C07DF05BDF83
:100192006A9F7B6B7B517925E96E000E7A21EA6EAC
:1001A200EE520BE07B517925E96E000E7A21EA6E60
:0E01B200EECF7CF087DF7B2BEDD76A8F12003B
:1001C00000016AB30DD06C0EE16E000EE26E695153
:1001D000E126D8B0E22A76C0E6FF692B766B0ED016
:1001E000695100080BE269076C0EE96E000EEA6EB9
:1001F0006951E926D8B0EA2AEECF76F076C000F051
:020200001200EA
:1002020097DF010E6B6F726B010E776F010E786FC5
:10021200460E796F5EDF490E7C6F54DF410E7C6FB4
:1002220051DF540E7C6F4EDF200E7C6F4BDF2D0EA4
:100232007C6F48DF200E7C6F45DF4D0E7C6F42DF06
:100242004F0E7C6F3FDF440E7C6F3CDF450E7C6FB0
:1002520039DF4C0E7C6F36DF4F0E7C6F33DF3A0E88
:100262007C6F30DF020E776F010E786F040E026E24
:1002720076C000F0000E016E025005E000360090DC
:100282000136FF0FFAD7190E0024796F000E0120F4
:060292007A6F56DF120036
:1002980081A804D000016ABD01D06A8D81AA04D06A
:1002A80000016AB701D06A8781AC04D000016AB93D
:1002B80001D06A8981AE04D000016ABB01D06A8B83
:1002C80081B807D000016AAD04D06A9D6A836A8547
:1002D8006A8181BA0FD000016AA70CD06A97715160
:1002E8006B5D05E37151725D02E2710702D072C065
:1002F80071F06A8181BC0FD000016AA90CD06A999B
:100308006B51715D05E2000E715D02E3712B02D045
:100318006BC071F06A8181BE06D000016AAB03D060
:080328006A9B6A856A811200DC
:1003300000DF020E6B6F726B010E776F010E786F2C
:100340004D0E796FC7DE4F0E7C6FBDDE4E0E7C6F9B
:10035000BADE540E7C6FB7DE410E7C6FB4DE440E05
:100360007C6FB1DE4F0E7C6FAEDE520E7C6FABDE6B
:10037000410E7C6FA8DE200E7C6FA5DE3A0E7C6FEE
:10038000A2DE020E776F010E786F040E026E75C04A
:1003900000F0000E016E025005E0003600900136BC
:1003A000FF0FFAD7390E0024796F000E01207A6F03
:0403B000C8DE120091
:1003B40000016AB30FD06AB504D071C076F01FDFB4
:1003C400FAD76A9571C076F0F9DE00C071F06AB3AD
:0803D40000D0EED76A9312007D
:1003DC00880ED56EB10ED76EE00ED66EF28AF19401
:0203EC001200FD
:1003EE00F2A406D0F294B10ED76EE00ED66E4DDFAB
:0203FE001200EB
:10040000959695949598959A959C959E8C968C9496
:100410008C9E8C9C8C9A8C9801DE00DEFFDD8C8A91
:100420008C888C8606DE8C96F9DD8C8602DE8C96B6
:10043000F5DD8C86FEDD8C96F1DD8C988C86F9DD01
:100440008C96ECDD8C86F5DD8C968C9A8C8E8C8669
:10045000F0DD8C96E3DD8C9E8C888C86EADD8C96B4
:100460008C988C86E6DD8C96D9DD8C86E2DD8C96C8
:100470008C888C86DEDD8C96D1DD8C988C86D9DDDF
:100480008C968C8E8C8C8C8A8C888C86D2DD8C960B
:08049000C5DD00016A8F1200B6
:1004980000016AB322D06AB504D071C075F044DF98
:1004A800FAD76A9571C076F087DE00C071F06905E9
:1004B800006E016A000E015A6C0E0024736F000E64
:1004C8000120746F02D072DF07D073C0E9FF74C0D7
:0E04D800EAFFEE50000AF7E0DBD76A9312004D
:1004E6000900F5CFE6FF0006FBE10106F9E112007F
:1004F6001DDE010E776F040E786F4A0E796FE7DD09
:10050600430E7C6FDDDD200E7C6FDADD4D0E7C6FD9
:10051600D7DD4F0E7C6FD4DD440E7C6FD1DD550EDA
:100526007C6FCEDD4C0E7C6FCBDD4F0E7C6FC8DD55
:10053600530E7C6FC5DD020E776F010E786F530E7A
:10054600796FC5DD490E7C6FBBDD4D0E7C6FB8DD66
:10055600550E7C6FB5DD200E7C6FB2DD440E7C6FD0
:10056600AFDD450E7C6FACDD200E7C6FA9DD430E42
:100576007C6FA6DD450E7C6FA3DD4E0E7C6FA0DD85
:10058600540E7C6F9DDD520E7C6F9ADD410E7C6FA2
:1005960097DD490E7C6F94DD530E7C6F91DD120062
:1005A6002FEC03F0F28EF28CD08E15DFC26A0F0E9E
:1005B600C16EF00E936E956A20DF0C0E7D6F41DDE5
:1005C60097DF270E0B6E0D0E0C6E260E0D6E0D2E82
:1005D600FED70C2EFCD70B2EFAD700006A81A6DDBB
:0605E60058DFFED7FFD72D
:1005EC0000C018F0156ED8CF16F0E0CF17F0F9DE7A
:1005FC001750E06E1650D86E153A153818C000F02A
:02060C001000DC
:10065E0010EE19F0500E006E010E016E0E0EF66EBB
:0E066E00060EF76E000EF86E73EC02F012002E
:10060E0049415720314737202D3E000000000000A1
:10061E004941572035394642202D3E00000000004A
:10062E0046494154202D3E0000000000000000000D
:10063E00464F5244202D3E000000000000000000F6
:10064E00474D202D3E00000000000000000000007D
:020000040030CA
:0E000000000C1F1EFF0381FF0FC00FE00F401A
:00000001FF
