:10000000F9EF0AF000000000BAEF0AF0000000006B
:0C0010000000000000000000E8EF0AF013
:0C001C00000000000000000000001200C6
:10002800240E0C6EB50E0D6E0D2EFED70C2EFCD7C1
:06003800000000001200B0
:0A003E00530E0D6E0D2EFED71200BA
:100048000B820BAE2EEF00F00368026801680068AF
:080058000A360232FF0E12000D
:10006000000183BF02D08C9E01D08C8E83BD02D054
:100070008C9C01D08C8C83BB02D08C9A01D08C8A52
:1000800083B902D08C9801D08C884EBC02D08C846D
:1000900001D08C948C86C2DF8C9683B702D08C9E64
:1000A00001D08C8E83B502D08C9C01D08C8C83B314
:1000B00002D08C9A01D08C8A83B102D08C9801D066
:1000C0008C884EBC02D08C8401D08C948C86A6DFA8
:0E00D0008C964EAC02D0A8DF01D0B1DF12003A
:1000DE000B840BAE7AEF00F0010E036E026A016A1A
:0A00EE00006A0A360232FF0E12000B
:0800F8000AAE029E000E120088
:0E010000026A016A006A086A036A000E1200B1
:0C010E004E9C7FC083F0A5DF4E8C1200D9
:08011A000B6A0B86FF0E1200B8
:100122000D6A086A0050D8B4000C04180A6E0ABEA0
:100132000D1E0B6A04AE02D0041E042A00AE02D0C9
:10014200001E002A005004100A6E0ABE1FD004507E
:10015200085E003600340836045008260036060EC3
:100162000C6E00340836045000B0085E00A0082669
:1001720000360C2EF6D700A008260BB015D00DAE17
:10018200000C001E002A081E082A000C04AE09D02A
:1001920000BE04D00050086E006AF1D7006A002A3F
:1001A200000C001E0B2AD3D7082A0450085CD8A4DE
:0E01B200E6D7086A002A00AEE2D7FF0C120062
:1001C000086A080E0C6E003408360450085ED8B079
:0E01D00002D00826D89000360C2EF5D712006B
:1001DE000C6A0E6A0250D8A408EF01F001C002F0BA
:1001EE0000C001F0006A0E860250D8A408EF01F09C
:1001FE0001C002F0016A0E960E880250D8B41AEFB2
:10020E0001F00E50035ED8A4D8A01FEF01F0D890D5
:10021E0002BE24EF01F0003601360236032E0FEF38
:10022E0001F01FEF01F0010E0C6E63DF27EF01F0FE
:10023E00020E0C6E4DDF27EF01F0040E0C6E55DF33
:02024E0012009C
:10025000086A096A000E07620364ADEF01F00250FC
:1002600006180A6E075003267E0ED8A03EEF01F056
:10027000035ED8B0B1EF01F042EF01F0035ED8A009
:10028000B5EF01F0028E068E02C00EF001C00BF039
:1002900000C00DF000500402F4CF0CF00150050234
:1002A000F4CF00F0F3CF08F00402F3500C26F45022
:1002B0000822000E00220D500502F3500C26F450C7
:1002C0000822000E002202500402F3500826F450C7
:1002D000002202500502016A000E0122F35000269E
:1002E000F45001220D500602F3500826F45000226B
:1002F000026A000E012202220B500602F350002671
:10030000F4500122000E02220E500602F350012684
:10031000F450022202BE95EF01F008360036013695
:1003200002360306D8B4B5EF01F0A8EF01F0D8808B
:10033000800E08640030000E002201220222D8A0A4
:10034000A8EF01F0023201320032034AB1EF01F0AE
:100350000AAE029E000EB7EF01F0010ED1DEB7EF3C
:1003600001F0020E71DEB7EF01F0040EB8DE1200EC
:100370000A6A0350D8A40A800750D8A40A820A50F7
:10038000D8B41BEF02F0030AD8B4D4EF01F00AB0DE
:10039000CFEF01F006AE19EF02F017EF02F002AE58
:1003A00017EF02F019EF02F00250800B0A6E029E66
:1003B0000650800B069E0A18D8B4E5EF01F00A50EB
:1003C000D8B417EF02F019EF02F00750035CD8B46D
:1003D000EFEF01F0D8A00BEF02F011EF02F00650A2
:1003E000025CD8B4F9EF01F0D8A00BEF02F011EFE6
:1003F00002F00550015CD8B403EF02F0D8A00BEF77
:1004000002F011EF02F00450005CD8B41BEF02F0D0
:10041000D8B011EF02F00A52D8B419EF02F017EF7A
:1004200002F00A52D8B417EF02F019EF02F0D880A8
:0E0430001200D8901200D880D884120012005A
:10043E007FC004F080C005F004C002F005C003F0D8
:10044E00044A052A81C000F082C001F00001814BF0
:10045E00822B00C0E9FF01C0EAFF02C0E1FF03C02A
:10046E00E2FFEECFE6FF02C0E9FF03C0EAFFEE5265
:0E047E0001E0E2D77FC000F080C001F0120064
:10048C004EA005D0010E0001836FE4DD4E901200EA
:10049C000001706B030E705D0AE270516E25E16E07
:1004AC00000E6F21E26E200EE66E702BF3D77051AA
:1004BC006E25E16E000E6F21E26EE66A70077051D8
:1004CC006E25716F000E6F21726F0A0E046E6DC077
:1004DC0000F070DE08C000F0300E002671C0E1FFA5
:1004EC0072C0E2FF00C0E6FF0A0E046E6DC000F0A1
:1004FC0061DE00C06DF00050000A01E102D070070F
:04050C00DED7120024
:1005100000017A6B7B6B7C6B7D6B7E6B6DC076F0C4
:100520006EC077F06FC078F070C079F07951FF0A33
:1005300008E17851FF0A05E17751FF0A02E176519F
:10054000FF0A0CE171C07FF072C080F04A0E816F2B
:10055000000E826F74DF030E006E58D2010E746FAE
:1005600078AF0FD0800E7819006E00C078F0742B31
:100570007B2B71C0E1FF72C0E2FF2D0EE66E714B66
:10058000722B000E006E791908E10050781905E110
:100590000050771902E17651000A0BE171C07FF03B
:1005A00072C080F0480E816F000E826F48DF006AD3
:1005B0002DD27951FF0A08E17851000A05E17751FF
:1005C000000A02E17651000A0CE171C07FF072C0AE
:1005D00080F0440E816F000E826F31DF74C000F036
:1005E00015D2000E046E000E056E000E066E7F0E14
:1005F000076E76C000F077C001F078C002F079C0D5
:1006000003F0B6DE010ED8B0000E006E00521BE003
:1006100076C000F077C001F078C002F079C003F036
:10062000000E046E000E056E200E066E820E076E22
:100630000FDE00C076F001C077F002C078F003C092
:1006400079F07E07CED7000E046E000E056E200EE8
:10065000066E820E076E76C000F077C001F078C09B
:1006600002F079C003F084DE000ED8B0010E006EF7
:1006700000521BE076C000F077C001F078C002F0B5
:1006800079C003F0CD0E046ECC0E056E4C0E066ED6
:100690007B0E076EDDDD00C076F001C077F002C092
:1006A00078F003C079F07E2BCED7FF0E7615086E5A
:1006B000FF0E7715096E7F0E78150A6E000E7915FC
:1006C0000B6E08C004F009C005F00AC006F00BC0AC
:1006D00007F004360490053606360736000E761508
:1006E000006E000E7715016E000E7815026EFF0E7B
:1006F0007915036E00C076F001C077F002C078F083
:1007000003C079F004507611006E05507711016E28
:1007100006507811026E07507911036E00C076F012
:1007200001C077F002C078F003C079F07F0E795DE8
:10073000006E00C075F0010E796F00C004F076C045
:1007400000F077C001F078C002F079C003F00450E7
:1007500007E000360090013602360336FF0FF8D767
:1007600000C076F001C077F002C078F003C079F0E5
:1007700071C0E1FF72C0E2FF7951300FE66E714B3C
:10078000722B7B2B800E7E19006E800E010A005C9E
:1007900008E3800E060A006E800E7E19005C01E3FD
:1007A0000BD071C0E1FF72C0E2FF2E0EE66E714BFE
:1007B000722B010E7A6F7B2B060E756F7551000A36
:1007C00058E0796B76C000F077C001F078C002F095
:1007D00079C003F000360090013602360336003649
:1007E00000900136023603367651002677510122F9
:1007F000785102227951032200C076F001C077F0CF
:1008000002C078F003C079F076C000F077C001F044
:1008100078C002F079C003F000360090013602364D
:10082000033600C076F001C077F002C078F003C054
:1008300079F071C0E1FF72C0E2FF7951300FE66ECE
:10084000714B722B7B2B7A51000A11E17E077E518E
:10085000000A0DE1010E7D6F71C0E1FF72C0E2FF81
:100860002E0EE66E714B722B010E7A6F7B2B750785
:10087000A5D77D51010AD8B47B07FF0E7125E96E1B
:10088000FF0E7221EA6EEE502E0A05E1010E715F35
:10089000000E725B7B07800E000A006E800E7E19D0
:1008A000005C02E2010E7C6F800E7E19006E800EED
:1008B000000A005C02E2020E7C6F7EC075F0800EC2
:1008C000090A006E800E7E19005C02E37C2B02D0C8
:1008D000020E7C277C517B25016E026A000E0222EB
:1008E000800E0218006E800E005C02E17351015C04
:1008F0000AE271C0E1FF72C0E2FF300EE66E714B9A
:10090000722B7B2BE7D77E51000A43E071C0E1FFD9
:1009100072C0E2FF650EE66E714B722B800E7E197F
:10092000006E800E000A005C0BE271C0E1FF72C035
:10093000E2FF2D0EE66E714B722B7E5100087E6F2A
:100940007EC075F0800E090A006E800E7E19005C74
:100950000FE20A0E046E75C000F091EC00F071C059
:10096000E1FF72C0E2FF0050300FE66E714B722B58
:100970000A0E046E75C000F091EC00F008C000F0A3
:1009800071C0E1FF72C0E2FF0050300FE66E714BA4
:10099000722B7C517B25006E00C07BF07351005C94
:1009A000016E01C075F0800E000A006E800E011805
:1009B000005C0EE2800E000A006E800E7519005C6D
:1009C00006E27507010E715F000E725BF3D718D057
:1009D000800E7519006E800E000A005C11E2800E18
:1009E0007519006E800E000A005C0AE2752B71C05A
:1009F000E1FF72C0E2FF300EE66E714B722BEFD753
:0E0A000071C0E1FF72C0E2FFE66A006A1200F8
:100A0E000050086E0150006E016A026A036A0B6A9A
:100A1E000C6A960E036E0A6A00C001F008C000F060
:0A0A2E00086A026AEFEC00F0120003
:100A380000016F6B706B6DC003F06EC004F06DC089
:100A480005F06EC006F003C0E9FF04C0EAFFEE50EF
:100A5800200A04E16F51701101E110D0010E6F6F8F
:100A6800000E706F03C0E9FF04C0EAFF05C0E1FF94
:100A780006C0E2FFEECFE6FF054A062A03C001F0F2
:100A880004C002F0034A042A01C0E9FF02C0EAFFD9
:100A9800EE50000AD8E16DC000F06EC001F01200FF
:100AA80010D0800E00016D6F1AD0C00E6D6F17D078
:100AB800940E6D6F14D0D40E6D6F11D0800E6D6FC3
:100AC8000ED000016D51010AECE06D51020AEDE013
:100AD8006D51030AEDE06D51040AEDE0EFD76E05A4
:100AE800006E6D51002600C06DF04E8C00C083F082
:100AF80030EC00F04E9C6FC083F030EC00F04E8C70
:020B08001200D9
:100B0A0010D0800E00016D6F1AD0C00E6D6F17D015
:100B1A00940E6D6F14D0D40E6D6F11D0800E6D6F60
:100B2A000ED000016D51010AECE06D51020AEDE0B0
:100B3A006D51030AEDE06D51040AEDE0EFD76E0541
:100B4A00006E6D51002600C06DF000C083F030ECDD
:100B5A0000F04E9C716B71516F25E96E000E702189
:100B6A00EA6EEE520CE071516F25E96E000E7021AB
:100B7A00EA6EEECF7FF087EC00F0712BECD74E8C4B
:020B8A00120057
:100B8C000450000A12E10550000A0FE10650000A59
:100B9C000CE10750000A09E1FF0E006EFF0E016E1A
:100BAC007F0E026EFF0E036EA8D0086A096A07500A
:100BBC00D8B471EF06F00350D8B476EF06F00250BB
:100BCC0006180A6E028E068E0E6A02C008F001C06C
:100BDC000CF000C00DF004500D5E0550D8A0053C83
:100BEC000C5E0650D8A0063C085E086A0C6A0D6ABA
:100BFC00D8A008EF06F0D890023201320032083249
:100C0C00010E0E6E0750035ED8A015EF06F07E0E97
:100C1C000E240326D8B07BEF06F01BEF06F07E0EF9
:100C2C000E240326D8A080EF06F0180E0B6E0D369E
:100C3C000C3608360036013602360E360450005E8D
:100C4C000550D8A0053C015E0650D8A0063C025EBB
:100C5C0006340E120EA036EF06F00D8041EF06F0B2
:100C6C00045000260550D8B0053C01260650D8B0DB
:100C7C00062802260D900B2E1DEF06F067EF06F0EE
:100C8C00D8900036013602360E360450005E055000
:100C9C00D8A0053C015E0650D8A0063C025E063486
:100CAC000E10010B0D26D8B00C2AD8B4082AD8A4E3
:100CBC0067EF06F008320C320D32032AD8B47BEF02
:100CCC0006F00AAE089E0850026E0C50016E0D50D4
:100CDC00006E83EF06F0010E8DEC00F083EF06F052
:100CEC00020E80EC00F083EF06F0040E24EC00F012
:0C0CFC0083EF06F0080E6FEC00F0120011
:100D080046EC02F0960E586E576A010E00016D6FA0
:100D1800010E6E6F510E6F6FC3DE550E7F6F87EC3D
:100D280000F0410E7F6F87EC00F04E0E7F6F87EC6E
:100D380000F0540E7F6F87EC00F0200E7F6F87EC79
:100D480000F0440E7F6F87EC00F0450E7F6F87EC54
:100D580000F04E0E7F6F87EC00F0540E7F6F87EC2B
:100D680000F0450E7F6F87EC00F0530E7F6F87EC25
:100D780000F0200E7F6F87EC00F03A0E7F6F87EC53
:100D880000F06CC06DF0500E6E6F000E6F6F4EEC81
:100D980002F0020E6D6F020E6E6F500E6F6F000E36
:060DA800706FAFDE1200C7
:080DAE008C908A96CD90120092
:100DB60046EC02F0020E0001606F010E5F6E010E3E
:100DC6006D6F010E6E6F530E6F6F6BDE490E7F6F88
:100DD60087EC00F04E0E7F6F87EC00F0410E7F6FC0
:100DE60087EC00F04C0E7F6F87EC00F0200E7F6FD3
:100DF60087EC00F0480E7F6F87EC00F0410E7F6FA6
:100E060087EC00F04C0E7F6F87EC00F04C0E7F6F86
:100E160087EC00F0200E7F6F87EC00F03A0E7F6FB4
:060E260087EC00F0120051
:100E2C004EB60ED05A0EE16E000EE26E4F50E12619
:100E3C00D8B0E22A6CC0E6FF4F2A00016C6B0ED0D2
:100E4C004F5000080BE24F065A0EE96E000EEA6E88
:100E5C004F50E926D8B0EA2AEECF6CF06CC000F007
:020E6C00120072
:040E6E00CD80120021
:100E720046EC02F0960E586E576A010E00016D6F35
:100E8200010E6E6F510E6F6F0EDE550E7F6F87EC87
:100E920000F0410E7F6F87EC00F04E0E7F6F87EC03
:100EA20000F0540E7F6F87EC00F0200E7F6F87EC0E
:100EB20000F0450E7F6F87EC00F0530E7F6F87ECDA
:100EC20000F0500E7F6F87EC00F0410E7F6F87ECD1
:100ED20000F0430E7F6F87EC00F04F0E7F6F87ECC0
:100EE20000F0530E7F6F87EC00F0200E7F6F87ECCF
:100EF20000F03A0E7F6F87EC00F06CC06DF0500E80
:100F02006E6F000E6F6F4EEC02F0020E6D6F020EEE
:0E0F12006E6F500E6F6F000E706FF6DD1200E6
:100F200046EC02F0010E00016D6F010E6E6F530E64
:100F30006F6FBADD490E7F6F87EC00F04E0E7F6F4A
:100F400087EC00F0410E7F6F87EC00F04C0E7F6F56
:100F500087EC00F0200E7F6F87EC00F0460E7F6F6D
:100F600087EC00F04F0E7F6F87EC00F04E0E7F6F26
:100F700087EC00F0490E7F6F87EC00F0430E7F6F27
:100F800087EC00F0410E7F6F87EC00F0200E7F6F42
:100F900087EC00F03A0E7F6F87EC00F060C06DF0D8
:100FA000500E6E6F000E6F6F4EEC02F0500E6D6FB4
:100FB000000E6E6F41DD00C06FF001C070F0020ED8
:100FC0006D6F010E6E6FA1DD020E6D6F040E6E6F00
:100FD0002D0E6F6F69DD5FC06DF0500E6E6F000EED
:100FE0006F6F4EEC02F0500E6D6F000E6E6F24DDD1
:100FF00000C06FF001C070F0020E6D6F060E6E6FD4
:1010000084DD020E6D6F100E6E6F250E6F6F4CDD5E
:101010006351FF08006E64C001F0FF0E0156F7DC5B
:10102000950E046EBF0E056E560E066E680E076EA8
:1010300028EC01F0000E046E000E056E000E066E28
:10104000800E076E28EC01F000C004F001C005F02E
:1010500002C006F003C007F0000E006E000E016E25
:10106000000E026E7F0E036E91DD00C065F001C0C0
:1010700066F002C067F003C068F000C06DF001C008
:101080006EF002C06FF003C070F0500E0001716F7F
:10109000000E726F050E736F88EC02F0500E6D6FCC
:1010A000000E6E6FC9DC00C06FF001C070F0020E60
:0A10B0006D6F0B0E6E6F29DD12004C
:1010BA004EB623D04EB404D059C06CF020DEFAD715
:1010CA004E9459C060F0596A4EB404D059C06CF0BD
:1010DA00CBDEFAD74E9459C05FF0596AC3DE4EB4DC
:1010EA0002D019DFFCD74E9459C06CF09ADE00C0CA
:0E10FA0059F04EB600D056DEDBD74E961200EF
:1011080081A802D04EAA4E8A81AA02D04EA84E8843
:1011180081AC04D0000162B101D0628181AE02D0FD
:101128004EAE4E8E81B806D04EAA04D04E9A4E8648
:101138004E844E8081BA0ED04EA80CD04E9859508D
:10114800585C05E35950575C02E2590602D057C073
:1011580059F04E8081BC0FD0000162A10CD0629181
:101168005850595C05E2000E595C02E3592A02D036
:1011780058C059F04E8081BE05D04EAE03D04E9E69
:061188004E844E801200AF
:10118E004EB60AD06DDE4E824EB402D00DDEFCD7C6
:0C119E004E924E9405DEF4D74E961200DF
:1011AA0046EC02F0010E586E576A010E00016D6F8F
:1011BA00010E6E6F540E6F6F72DC490E7F6F87ECF3
:1011CA0000F0500E7F6F87EC00F04F0E7F6F87ECB8
:1011DA0000F0200E7F6F87EC00F0530E7F6F87ECD4
:1011EA0000F0490E7F6F87EC00F04E0E7F6F87ECA0
:1011FA0000F0410E7F6F87EC00F04C0E7F6F87EC9A
:10120A0000F0200E7F6F87EC00F03A0E7F6F87ECBC
:10121A0000F0020E6D6F010E6E6F040E026E6BC04F
:10122A0000F0000E016E025005E000360090013613
:10123A00FF0FFAD7240E00246F6F000E0120706F83
:04124A005FDC120053
:10124E00880ED56EB10ED76EE00ED66EF28AF19480
:02125E0012007C
:10126000F2A406D0F294B10ED76EE00ED66E4CDF2B
:0212700012006A
:101272009EA069D04EB251D00001612B60C004F033
:10128200000E056E0436053604905FC000F0000EB5
:10129200016E0036013600900050045C026E01506F
:1012A2000558036E800E006E800E0318005C02E18A
:1012B2000250615DD8A08C7060C004F0000E056E13
:1012C2000436053604905FC000F0000E016E003651
:1012D200013600900050045C026E01500558036E06
:1012E200800E006E800E0318005C02E10250615D08
:1012F20002E38A768C9060C001F0000E026E013625
:1013020002360190000E021803E10001015061193A
:1013120003E10001616B8A9601D08C72CE6A64C0CF
:1013220000F0016A00C0CFFF63C000F064C001F0AA
:1013320007EC05F000C065F001C066F002C067F07E
:0813420003C068F09E90120048
:0E134A00400ECD6ECE6ACF6A9D809F8012004D
:1013580046EC02F0010E00016D6F040E6E6F4A0E2E
:101368006F6F54EC05F0430E7F6F87EC00F0200E92
:101378007F6F87EC00F04D0E7F6F87EC00F04F0E0B
:101388007F6F87EC00F0440E7F6F87EC00F0550EFE
:101398007F6F87EC00F04C0E7F6F87EC00F04F0EEC
:1013A8007F6F87EC00F0530E7F6F87EC00F0020E22
:1013B8006D6F010E6E6F530E6F6F54EC05F0490E92
:1013C8007F6F87EC00F04D0E7F6F87EC00F0550EB5
:1013D8007F6F87EC00F0200E7F6F87EC00F0440EE3
:1013E8007F6F87EC00F0450E7F6F87EC00F0200ED2
:1013F8007F6F87EC00F0430E7F6F87EC00F0450E9F
:101408007F6F87EC00F04E0E7F6F87EC00F0540E74
:101418007F6F87EC00F0520E7F6F87EC00F0410E73
:101428007F6F87EC00F0490E7F6F87EC00F0530E5A
:081438007F6F87EC00F0120049
:101440004EB62CD04EB404D059C06BF0AEDEFAD7F5
:101450004E9459C06CF0EADC00C059F04F04006EA5
:10146000016A000E015A5A0E00240001696F000E35
:1014700001206A6F04D021DE10D089DE0ED069C051
:10148000E9FF6AC0EAFFEE50000AF5E069C0E9FF33
:101490006AC0EAFFEE50010AF0E0D2D74E96120081
:1014A0000900F5CFE6FF0006FBE10106F9E11200B5
:1014B000959695949598959A959C959E8C968C94D6
:1014C0008C9E8C9C8C9A8C9814EC00F014EC00F0A0
:1014D00014EC00F08C8A8C888C860EEC00F08C96D4
:1014E00014EC00F08C860EEC00F08C9614EC00F0FE
:1014F0008C860EEC00F08C9614EC00F08C988C86A8
:101500000EEC00F08C9614EC00F08C860EEC00F0E3
:101510008C968C9A8C8E8C860EEC00F08C9614EC4B
:1015200000F08C9E8C888C860EEC00F08C968C984B
:101530008C860EEC00F08C9614EC00F08C860EEC91
:1015400000F08C968C888C860EEC00F08C9614EC57
:1015500000F08C988C860EEC00F08C968C8E8C8C27
:101560008C8A8C888C860EEC00F08C9614EC00F043
:041570004E8C12008B
:1015740000C023F001C022F002C021F003C020F01B
:1015840004C01FF005C01EF008C01DF00AC01CF006
:101594000BC01BF00CC01AF00EC019F068DE23C09B
:1015A40000F022C001F021C002F020C003F01FC0EF
:1015B40004F01EC005F01DC008F01CC00AF01BC0DA
:0C15C4000BF01AC00CF019C00EF0110062
:1015D00000C018F0156ED8CF16F0E0CF17F040DE3F
:1015E0001750E06E1650D86E153A153818C000F036
:0215F0001000E9
:1015F20035EC0BF0F28EF28CD08E28DEA5DEC26ABC
:101602000F0EC16EF00E936E956A51DF0C0E000143
:10161200836F30EC00F09FDE270E0B6E0D0E0C6E0A
:10162200260E0D6E0D2EFED70C2EFCD70B2EFAD7E2
:0E16320000004E8046EC02F002DFFED7FFD72C
:10166A0010EE24F02A0E006E010E016E400EF66E88
:0E167A00160EF76E000EF86E50EC0AF012001D
:1016400053494E414C20494E44555449564F000091
:1016500053494E414C2048414C4C000000000000D2
:04166000494E4600A9
:02166400300054
:041666004E614E0083
:020000040030CA
:0E000000000C1F1EFF0381FF0FC00FE00F401A
:00000001FF
