:1000000030EF04F00000000000EF00F000000000FE
:0C001000000000000000000054EF04F0AD
:0A001C00530E0D6E0D2EFED71200DC
:10002600240E0C6EB50E0D6E0D2EFED70C2EFCD7C3
:06003600000000001200B2
:0C003C00000000000000000000001200A6
:1000480057BE02D08C9E01D08C8E57BC02D08C9C9F
:1000580001D08C8C57BA02D08C9A01D08C8A57B8B0
:1000680002D08C9801D08C883ABE02D08C8401D002
:100078008C948C86DFDF8C9657B602D08C9E01D08C
:100088008C8E57B402D08C9C01D08C8C57B202D085
:100098008C9A01D08C8A57B002D08C9801D08C8869
:1000A8003ABE02D08C8401D08C948C86C3DF8C96A7
:0C00B8003AAE02D0B4DF01D0ADDF120080
:0C00C4003A9E56C057F0BEDF3A8E120084
:1000D000086A080E0C6E003408360450085ED8B06A
:0E00E00002D00826D89000360C2EF5D712005C
:1000EE000FD0800E506E19D0C00E506E16D0940EDA
:1000FE00506E13D0D40E506E10D0800E506E0DD0A8
:10010E005050010AEEE05050020AEEE05050030A41
:10011E00EEE05050040AEEE0F0D75104006E50505D
:10012E00002600C050F03A8E00C057F086DF3A9E8F
:0A013E0052C057F082DF3A8E120023
:0E0148003AA004D0010E576E7BDF3A901200F1
:100156000FD0800E506E19D0C00E506E16D0940E71
:10016600506E13D0D40E506E10D0800E506E0DD03F
:100176005050010AEEE05050020AEEE05050030AD9
:10018600EEE05050040AEEE0F0D75104006E5050F5
:10019600002600C050F000C057F053DF3A9E546A64
:1001A60054505224E96E000E5320EA6EEE520BE0D4
:1001B60054505224E96E000E5320EA6EEECF56F0EC
:0A01C6007EDF542AEDD73A8E1200B6
:1001D000536A030E535C0AE253505124E16E000E41
:1001E0005220E26E200EE66E532AF3D7535051246C
:1001F000E16E000E5220E26EE66A5306535051241F
:10020000546E000E5220556E0A0E046E50C000F05F
:100210005FDF08C000F0300E002654C0E1FF55C07B
:10022000E2FF00C0E6FF0A0E046E50C000F050DF8F
:1002300000C050F00050000A01E102D05306DED7A2
:020240001200AA
:10024200526A536A50C003F051C004F050C005F026
:1002520051C006F003C0E9FF04C0EAFFEE50200AD5
:1002620004E15250531001E110D0010E526E000E03
:10027200536E03C0E9FF04C0EAFF05C0E1FF06C0F8
:10028200E2FFEECFE6FF054A062A03C001F004C0F2
:1002920002F0034A042A01C0E9FF02C0EAFFEE505D
:0E02A200000AD8E150C000F051C001F0120077
:1002B0004BDF010E506E010E516E530E526E17DF62
:1002C000490E566EFFDE4E0E566EFCDE410E566E29
:1002D000F9DE4C0E566EF6DE200E566EF3DE460E3E
:1002E000566EF0DE4F0E566EEDDE4E0E566EEADEA8
:1002F000490E566EE7DE430E566EE4DE410E566E34
:10030000E1DE200E566EDEDE3A0E566EDBDE4EC0AD
:1003100050F0430E516E000E526E5ADF430E506E77
:10032000000E516E8EDF00C052F001C053F0020E7D
:10033000506E010E516E0FDF020E506E040E516EA4
:100340002D0E526ED4DE4FC050F0430E516E000E93
:10035000526E3EDF430E506E000E516E72DF00C0D3
:1003600052F001C053F0020E506E060E516EF3DED5
:02037000120079
:10037200EADE960E3B6E426A010E506E010E516E1F
:10038200510E526EB3DE550E566E9BDE410E566E08
:1003920098DE4E0E566E95DE540E566E92DE200E8E
:1003A200566E8FDE450E566E8CDE530E566E89DE0D
:1003B200500E566E86DE410E566E83DE430E566E2C
:1003C20080DE4F0E566E7DDE530E566E7ADE200EA6
:1003D200566E77DE3A0E566E74DE4EC050F0430E05
:1003E200516E000E526EF3DE020E506E020E516E10
:0C03F200430E526E000E536EADDE120082
:1003FE00A4DE960E3B6E426A010E506E010E516ED9
:10040E00510E526E6DDE550E566E55DE410E566E07
:10041E0052DE4E0E566E4FDE540E566E4CDE200ED3
:10042E00566E49DE440E566E46DE450E566E43DE61
:10043E004E0E566E40DE540E566E3DDE450E566E18
:10044E003ADE530E566E37DE200E566E34DE3A0E00
:10045E00566E31DE4EC050F0430E516E000E526E8F
:10046E00B0DE020E506E020E516E430E526E000E34
:06047E00536E6ADE12005D
:1004840061DE010E506E010E516E530E526E2DDE62
:10049400490E566E15DE4E0E566E12DE410E566E27
:1004A4000FDE4C0E566E0CDE200E566E09DE480E24
:1004B400566E06DE410E566E03DE4C0E566E00DEA0
:1004C4004C0E566EFDDD200E566EFADD3A0E566E5B
:0404D400F7DD12003E
:1004D8003AB20DD03C0EE16E000EE26E3950E126C4
:1004E800D8B0E22A4EC0E6FF392A4E6A0ED03950FB
:1004F80000080BE239063C0EE96E000EEA6E395030
:10050800E926D8B0EA2AEECF4EF04EC000F012002D
:100518003AB225D03AB404D041C04EF06CDFFAD7D5
:100528003A9441C04CF0416A3AB404D041C04EF00C
:100538001CDFFAD73A9441C04DF0416A3AB406D06C
:100548004CC04EF04DC04FF0AFDEF8D73A9441C0E2
:100558004EF0BEDF00C041F03AB200D0D9D73A928F
:0205680012007F
:10056A0081A802D03AAC3A8C81AA02D03AA63A863D
:10057A0081AC02D03AA83A8881AE02D03AAA3A8A25
:10058A0081B806D03AAC04D03A9C3A823A843A808E
:10059A0081BA0ED03AA60CD03A9641503B5C05E39C
:1005AA004150425C02E2410602D042C041F03A8028
:1005BA0081BC0ED03AA80CD03A983B50415C05E277
:1005CA00000E415C02E3412A02D03BC041F03A806E
:1005DA0081BE05D03AAA03D03A9A3A843A801200E8
:1005EA003AB206D03AB402D048DFFCD73A94F8D7E8
:0405FA003A9212001F
:1005FE00A4DD010E3B6E426A010E506E010E516E6D
:10060E00540E526E6DDD490E566E55DD500E566E01
:10061E0052DD4F0E566E4FDD200E566E4CDD530ED4
:10062E00566E49DD490E566E46DD4E0E566E43DD54
:10063E00410E566E40DD4C0E566E3DDD200E566E52
:10064E003ADD3A0E566E37DD020E506E010E516EC9
:10065E00040E026E4CC000F0000E016E025005E05A
:10066E00003600900136FF0FFAD7190E0024526E95
:0A067E00000E0120536E68DD12002B
:10068800880ED56EB10ED76EE00ED66EF28AF19452
:0206980012004E
:10069A00F2A406D0F294B10ED76EE00ED66E60DFE9
:0206AA0012003C
:1006AC00959695949598959A959C959E8C968C94E8
:1006BC008C9E8C9C8C9A8C98B0DCAFDCAEDC8C8ADB
:1006CC008C888C86B5DC8C96A8DC8C86B1DC8C9600
:1006DC00A4DC8C86ADDC8C96A0DC8C988C86A8DC9B
:1006EC008C969BDC8C86A4DC8C968C9A8C8E8C865F
:1006FC009FDC8C9692DC8C9E8C888C8699DC8C96FC
:10070C008C988C8695DC8C9688DC8C8691DC8C960F
:10071C008C888C868DDC8C9680DC8C988C8688DC26
:10072C008C968C8E8C8C8C8A8C888C8681DC8C96AE
:06073C0074DC3A8E12008D
:100742003AB22BD03AB404D041C04CF057DFFAD7BA
:100752003A9441C04EF0BFDE00C041F03904006E51
:10076200016A000E015A3C0E00244A6E000E01205E
:100772004B6E04D0D0DE10D037DF0ED04AC0E9FF76
:100782004BC0EAFFEE50000AF5E04AC0E9FF4BC059
:0E079200EAFFEE50010AF0E0D3D73A921200CF
:1007A0000900F5CFE6FF0006FBE10106F9E11200C2
:1007B000CBDC010E506E040E516E4A0E526E97DC69
:1007C000430E566E7FDC200E566E7CDC4D0E566E50
:1007D00079DC4F0E566E76DC440E566E73DC550E89
:1007E000566E70DC4C0E566E6DDC4F0E566E6ADC2B
:1007F000530E566E67DC020E506E010E516E530E94
:10080000526E75DC490E566E5DDC4D0E566E5ADC2E
:10081000550E566E57DC200E566E54DC440E566E46
:1008200051DC450E566E4EDC200E566E4BDC430EF0
:10083000566E48DC450E566E45DC4E0E566E42DC5A
:10084000540E566E3FDC520E566E3CDC410E566E18
:1008500039DC490E566E36DC530E566E33DC120010
:1008600075EC04F0F28EF28CD08E0EDFC26A0F0EA1
:10087000C16EF00E936E956A19DF0C0E576E24EC64
:1008800000F096DF270E0B6E0D0E0C6E260E0D6E11
:100890000D2EFED70C2EFCD70B2EFAD700003A8077
:0808A00053DC4FDFFED7FFD748
:1008A80000C018F0156ED8CF16F0E0CF17F0F1DEC3
:1008B8001750E06E1650D86E153A153818C000F06B
:0208C80010001E
:1008EA0010EE19F0200E006E010E016ECA0EF66EA1
:0E08FA00080EF76E000EF86ED0EC03F0120040
:1008CA0053494E414C20494E44555449564F000015
:1008DA0053494E414C2048414C4C00000000000056
:020000040030CA
:0E000000000C1F1EFF0381FF0FC00FE00F401A
:00000001FF
